{
  "_format": "hh-sol-artifact-1",
  "contractName": "LFGATMNFT",
  "sourceName": "contracts/LFGATMNFT.sol",
  "abi": [
    {
      "inputs": [
        {
          "internalType": "string",
          "name": "contractName",
          "type": "string"
        },
        {
          "internalType": "string",
          "name": "contractSymbol",
          "type": "string"
        },
        {
          "internalType": "address",
          "name": "_vault",
          "type": "address"
        },
        {
          "internalType": "address",
          "name": "_signer",
          "type": "address"
        },
        {
          "internalType": "string",
          "name": "__baseTokenURI",
          "type": "string"
        },
        {
          "internalType": "string",
          "name": "_hiddenMetadataUri",
          "type": "string"
        }
      ],
      "stateMutability": "nonpayable",
      "type": "constructor"
    },
    {
      "anonymous": false,
      "inputs": [
        {
          "indexed": true,
          "internalType": "address",
          "name": "owner",
          "type": "address"
        },
        {
          "indexed": true,
          "internalType": "address",
          "name": "approved",
          "type": "address"
        },
        {
          "indexed": true,
          "internalType": "uint256",
          "name": "tokenId",
          "type": "uint256"
        }
      ],
      "name": "Approval",
      "type": "event"
    },
    {
      "anonymous": false,
      "inputs": [
        {
          "indexed": true,
          "internalType": "address",
          "name": "owner",
          "type": "address"
        },
        {
          "indexed": true,
          "internalType": "address",
          "name": "operator",
          "type": "address"
        },
        {
          "indexed": false,
          "internalType": "bool",
          "name": "approved",
          "type": "bool"
        }
      ],
      "name": "ApprovalForAll",
      "type": "event"
    },
    {
      "anonymous": false,
      "inputs": [
        {
          "indexed": true,
          "internalType": "address",
          "name": "previousOwner",
          "type": "address"
        },
        {
          "indexed": true,
          "internalType": "address",
          "name": "newOwner",
          "type": "address"
        }
      ],
      "name": "OwnershipTransferred",
      "type": "event"
    },
    {
      "anonymous": false,
      "inputs": [
        {
          "indexed": true,
          "internalType": "address",
          "name": "from",
          "type": "address"
        },
        {
          "indexed": true,
          "internalType": "address",
          "name": "to",
          "type": "address"
        },
        {
          "indexed": true,
          "internalType": "uint256",
          "name": "tokenId",
          "type": "uint256"
        }
      ],
      "name": "Transfer",
      "type": "event"
    },
    {
      "inputs": [],
      "name": "Author",
      "outputs": [
        {
          "internalType": "string",
          "name": "",
          "type": "string"
        }
      ],
      "stateMutability": "view",
      "type": "function"
    },
    {
      "inputs": [],
      "name": "MAX_TOKENS",
      "outputs": [
        {
          "internalType": "uint256",
          "name": "",
          "type": "uint256"
        }
      ],
      "stateMutability": "view",
      "type": "function"
    },
    {
      "inputs": [],
      "name": "ProjectTeam",
      "outputs": [
        {
          "internalType": "string",
          "name": "",
          "type": "string"
        }
      ],
      "stateMutability": "view",
      "type": "function"
    },
    {
      "inputs": [
        {
          "internalType": "address",
          "name": "to",
          "type": "address"
        },
        {
          "internalType": "uint256",
          "name": "tokenId",
          "type": "uint256"
        }
      ],
      "name": "approve",
      "outputs": [],
      "stateMutability": "nonpayable",
      "type": "function"
    },
    {
      "inputs": [
        {
          "internalType": "address",
          "name": "owner",
          "type": "address"
        }
      ],
      "name": "balanceOf",
      "outputs": [
        {
          "internalType": "uint256",
          "name": "",
          "type": "uint256"
        }
      ],
      "stateMutability": "view",
      "type": "function"
    },
    {
      "inputs": [],
      "name": "baseExtension",
      "outputs": [
        {
          "internalType": "string",
          "name": "",
          "type": "string"
        }
      ],
      "stateMutability": "view",
      "type": "function"
    },
    {
      "inputs": [
        {
          "internalType": "uint256",
          "name": "tokenId",
          "type": "uint256"
        }
      ],
      "name": "burn",
      "outputs": [],
      "stateMutability": "nonpayable",
      "type": "function"
    },
    {
      "inputs": [],
      "name": "buyBonusMultiplier",
      "outputs": [
        {
          "internalType": "uint256",
          "name": "",
          "type": "uint256"
        }
      ],
      "stateMutability": "view",
      "type": "function"
    },
    {
      "inputs": [
        {
          "internalType": "uint256",
          "name": "tokenId",
          "type": "uint256"
        }
      ],
      "name": "getApproved",
      "outputs": [
        {
          "internalType": "address",
          "name": "",
          "type": "address"
        }
      ],
      "stateMutability": "view",
      "type": "function"
    },
    {
      "inputs": [],
      "name": "hiddenMetadataUri",
      "outputs": [
        {
          "internalType": "string",
          "name": "",
          "type": "string"
        }
      ],
      "stateMutability": "view",
      "type": "function"
    },
    {
      "inputs": [
        {
          "internalType": "address",
          "name": "owner",
          "type": "address"
        },
        {
          "internalType": "address",
          "name": "operator",
          "type": "address"
        }
      ],
      "name": "isApprovedForAll",
      "outputs": [
        {
          "internalType": "bool",
          "name": "",
          "type": "bool"
        }
      ],
      "stateMutability": "view",
      "type": "function"
    },
    {
      "inputs": [],
      "name": "maxWhitelistPassMints",
      "outputs": [
        {
          "internalType": "uint256",
          "name": "",
          "type": "uint256"
        }
      ],
      "stateMutability": "view",
      "type": "function"
    },
    {
      "inputs": [],
      "name": "name",
      "outputs": [
        {
          "internalType": "string",
          "name": "",
          "type": "string"
        }
      ],
      "stateMutability": "view",
      "type": "function"
    },
    {
      "inputs": [
        {
          "internalType": "uint256",
          "name": "quantity",
          "type": "uint256"
        }
      ],
      "name": "openMint",
      "outputs": [],
      "stateMutability": "payable",
      "type": "function"
    },
    {
      "inputs": [],
      "name": "owner",
      "outputs": [
        {
          "internalType": "address",
          "name": "",
          "type": "address"
        }
      ],
      "stateMutability": "view",
      "type": "function"
    },
    {
      "inputs": [
        {
          "internalType": "uint256",
          "name": "tokenId",
          "type": "uint256"
        }
      ],
      "name": "ownerOf",
      "outputs": [
        {
          "internalType": "address",
          "name": "",
          "type": "address"
        }
      ],
      "stateMutability": "view",
      "type": "function"
    },
    {
      "inputs": [],
      "name": "privateMintIsOpen",
      "outputs": [
        {
          "internalType": "bool",
          "name": "",
          "type": "bool"
        }
      ],
      "stateMutability": "view",
      "type": "function"
    },
    {
      "inputs": [],
      "name": "publicMintIsOpen",
      "outputs": [
        {
          "internalType": "bool",
          "name": "",
          "type": "bool"
        }
      ],
      "stateMutability": "view",
      "type": "function"
    },
    {
      "inputs": [],
      "name": "publicMintMaxLimit",
      "outputs": [
        {
          "internalType": "uint256",
          "name": "",
          "type": "uint256"
        }
      ],
      "stateMutability": "view",
      "type": "function"
    },
    {
      "inputs": [],
      "name": "renounceOwnership",
      "outputs": [],
      "stateMutability": "nonpayable",
      "type": "function"
    },
    {
      "inputs": [],
      "name": "revealed",
      "outputs": [
        {
          "internalType": "bool",
          "name": "",
          "type": "bool"
        }
      ],
      "stateMutability": "view",
      "type": "function"
    },
    {
      "inputs": [
        {
          "internalType": "address",
          "name": "from",
          "type": "address"
        },
        {
          "internalType": "address",
          "name": "to",
          "type": "address"
        },
        {
          "internalType": "uint256",
          "name": "tokenId",
          "type": "uint256"
        }
      ],
      "name": "safeTransferFrom",
      "outputs": [],
      "stateMutability": "nonpayable",
      "type": "function"
    },
    {
      "inputs": [
        {
          "internalType": "address",
          "name": "from",
          "type": "address"
        },
        {
          "internalType": "address",
          "name": "to",
          "type": "address"
        },
        {
          "internalType": "uint256",
          "name": "tokenId",
          "type": "uint256"
        },
        {
          "internalType": "bytes",
          "name": "_data",
          "type": "bytes"
        }
      ],
      "name": "safeTransferFrom",
      "outputs": [],
      "stateMutability": "nonpayable",
      "type": "function"
    },
    {
      "inputs": [
        {
          "internalType": "address",
          "name": "operator",
          "type": "address"
        },
        {
          "internalType": "bool",
          "name": "approved",
          "type": "bool"
        }
      ],
      "name": "setApprovalForAll",
      "outputs": [],
      "stateMutability": "nonpayable",
      "type": "function"
    },
    {
      "inputs": [
        {
          "internalType": "string",
          "name": "_baseExtension",
          "type": "string"
        }
      ],
      "name": "setBaseExtension",
      "outputs": [],
      "stateMutability": "nonpayable",
      "type": "function"
    },
    {
      "inputs": [
        {
          "internalType": "string",
          "name": "newBaseURI",
          "type": "string"
        }
      ],
      "name": "setBaseURI",
      "outputs": [],
      "stateMutability": "nonpayable",
      "type": "function"
    },
    {
      "inputs": [
        {
          "internalType": "uint256",
          "name": "amount",
          "type": "uint256"
        }
      ],
      "name": "setFreeMints",
      "outputs": [],
      "stateMutability": "nonpayable",
      "type": "function"
    },
    {
      "inputs": [
        {
          "internalType": "string",
          "name": "_hiddenMetadataUri",
          "type": "string"
        }
      ],
      "name": "setHiddenMetadataUri",
      "outputs": [],
      "stateMutability": "nonpayable",
      "type": "function"
    },
    {
      "inputs": [
        {
          "internalType": "uint256",
          "name": "newPrice",
          "type": "uint256"
        },
        {
          "internalType": "uint256",
          "name": "newWhitelistTokenPrice",
          "type": "uint256"
        },
        {
          "internalType": "uint256",
          "name": "setOpenMintLimit",
          "type": "uint256"
        },
        {
          "internalType": "uint256",
          "name": "setWhistlistPassMintLimit",
          "type": "uint256"
        },
        {
          "internalType": "bool",
          "name": "setPublicMintState",
          "type": "bool"
        },
        {
          "internalType": "bool",
          "name": "setPrivateMintState",
          "type": "bool"
        }
      ],
      "name": "setParams",
      "outputs": [],
      "stateMutability": "nonpayable",
      "type": "function"
    },
    {
      "inputs": [
        {
          "internalType": "bool",
          "name": "_state",
          "type": "bool"
        }
      ],
      "name": "setRevealed",
      "outputs": [],
      "stateMutability": "nonpayable",
      "type": "function"
    },
    {
      "inputs": [
        {
          "internalType": "address",
          "name": "newSigner",
          "type": "address"
        }
      ],
      "name": "setSignerAddress",
      "outputs": [],
      "stateMutability": "nonpayable",
      "type": "function"
    },
    {
      "inputs": [
        {
          "internalType": "uint256",
          "name": "newPrice",
          "type": "uint256"
        }
      ],
      "name": "setTokenPrice",
      "outputs": [],
      "stateMutability": "nonpayable",
      "type": "function"
    },
    {
      "inputs": [
        {
          "internalType": "uint256",
          "name": "newMintLimit",
          "type": "uint256"
        }
      ],
      "name": "setTransactionMintLimit",
      "outputs": [],
      "stateMutability": "nonpayable",
      "type": "function"
    },
    {
      "inputs": [
        {
          "internalType": "address",
          "name": "newVault",
          "type": "address"
        }
      ],
      "name": "setVaultAddress",
      "outputs": [],
      "stateMutability": "nonpayable",
      "type": "function"
    },
    {
      "inputs": [
        {
          "internalType": "uint256",
          "name": "newprivateMintLimit",
          "type": "uint256"
        }
      ],
      "name": "setWhitelistTransactionMintLimit",
      "outputs": [],
      "stateMutability": "nonpayable",
      "type": "function"
    },
    {
      "inputs": [
        {
          "internalType": "bytes4",
          "name": "interfaceId",
          "type": "bytes4"
        }
      ],
      "name": "supportsInterface",
      "outputs": [
        {
          "internalType": "bool",
          "name": "",
          "type": "bool"
        }
      ],
      "stateMutability": "view",
      "type": "function"
    },
    {
      "inputs": [],
      "name": "symbol",
      "outputs": [
        {
          "internalType": "string",
          "name": "",
          "type": "string"
        }
      ],
      "stateMutability": "view",
      "type": "function"
    },
    {
      "inputs": [
        {
          "internalType": "address",
          "name": "to",
          "type": "address"
        },
        {
          "internalType": "uint256",
          "name": "amount",
          "type": "uint256"
        }
      ],
      "name": "teamMint",
      "outputs": [],
      "stateMutability": "nonpayable",
      "type": "function"
    },
    {
      "inputs": [],
      "name": "togglePresaleMint",
      "outputs": [],
      "stateMutability": "nonpayable",
      "type": "function"
    },
    {
      "inputs": [],
      "name": "togglePublicMint",
      "outputs": [],
      "stateMutability": "nonpayable",
      "type": "function"
    },
    {
      "inputs": [],
      "name": "tokenPrice",
      "outputs": [
        {
          "internalType": "uint256",
          "name": "",
          "type": "uint256"
        }
      ],
      "stateMutability": "view",
      "type": "function"
    },
    {
      "inputs": [
        {
          "internalType": "uint256",
          "name": "_tokenId",
          "type": "uint256"
        }
      ],
      "name": "tokenURI",
      "outputs": [
        {
          "internalType": "string",
          "name": "",
          "type": "string"
        }
      ],
      "stateMutability": "view",
      "type": "function"
    },
    {
      "inputs": [],
      "name": "totalSupply",
      "outputs": [
        {
          "internalType": "uint256",
          "name": "",
          "type": "uint256"
        }
      ],
      "stateMutability": "view",
      "type": "function"
    },
    {
      "inputs": [
        {
          "internalType": "address",
          "name": "from",
          "type": "address"
        },
        {
          "internalType": "address",
          "name": "to",
          "type": "address"
        },
        {
          "internalType": "uint256",
          "name": "tokenId",
          "type": "uint256"
        }
      ],
      "name": "transferFrom",
      "outputs": [],
      "stateMutability": "nonpayable",
      "type": "function"
    },
    {
      "inputs": [
        {
          "internalType": "address",
          "name": "newOwner",
          "type": "address"
        }
      ],
      "name": "transferOwnership",
      "outputs": [],
      "stateMutability": "nonpayable",
      "type": "function"
    },
    {
      "inputs": [
        {
          "internalType": "uint256",
          "name": "_multiplier",
          "type": "uint256"
        }
      ],
      "name": "updateMultiplier",
      "outputs": [],
      "stateMutability": "nonpayable",
      "type": "function"
    },
    {
      "inputs": [
        {
          "internalType": "uint256",
          "name": "quantity",
          "type": "uint256"
        },
        {
          "internalType": "uint256",
          "name": "claimable",
          "type": "uint256"
        },
        {
          "components": [
            {
              "internalType": "bytes32",
              "name": "r",
              "type": "bytes32"
            },
            {
              "internalType": "bytes32",
              "name": "s",
              "type": "bytes32"
            },
            {
              "internalType": "uint8",
              "name": "v",
              "type": "uint8"
            }
          ],
          "internalType": "struct LFGATMNFT.WhitelistClaimPass",
          "name": "whitelistClaimPass",
          "type": "tuple"
        }
      ],
      "name": "whitelistClaimMint",
      "outputs": [],
      "stateMutability": "payable",
      "type": "function"
    },
    {
      "inputs": [],
      "name": "whitelistMintMaxLimit",
      "outputs": [
        {
          "internalType": "uint256",
          "name": "",
          "type": "uint256"
        }
      ],
      "stateMutability": "view",
      "type": "function"
    },
    {
      "inputs": [],
      "name": "whitelistTokenPrice",
      "outputs": [
        {
          "internalType": "uint256",
          "name": "",
          "type": "uint256"
        }
      ],
      "stateMutability": "view",
      "type": "function"
    },
    {
      "inputs": [],
      "name": "withdraw",
      "outputs": [],
      "stateMutability": "nonpayable",
      "type": "function"
    }
  ],
  "bytecode": "0x6032600a819055600b55662386f26fc10000600c556000600d55612710600e556001600f556010805462ffffff1916905560c06040526005608081905264173539b7b760d91b60a09081526200005991601291906200058b565b50601480546001600160a01b031990811690915560158054909116905560408051808201909152600680825265446961626c6f60d01b6020909201918252620000a5916017916200058b565b50604080518082019091526008808252676e667470756d707360c01b6020909201918252620000d7916018916200058b565b50348015620000e557600080fd5b5060405162003d9138038062003d91833981016040819052620001089162000728565b85856200011533620001e9565b81516200012a9060019060208501906200058b565b508051620001409060029060208401906200058b565b5050601480546001600160a01b03199081166001600160a01b038881169190911790925560158054909116918616919091179055506200018d600862000239602090811b6200212917901c565b620001a460086200023960201b620021291760201c565b620001b133600162000242565b8151620001c69060119060208501906200058b565b508051620001dc9060139060208401906200058b565b50505050505050620008f2565b600080546001600160a01b038381166001600160a01b0319831681178455604051919092169283917f8be0079c531659141344cd1fd0a4f28419497f9722a3daafe3b4186f6b6457e09190a35050565b80546001019055565b620002648282604051806020016040528060008152506200026860201b60201c565b5050565b620002748383620002e4565b6200028360008484846200042c565b620002df5760405162461bcd60e51b8152602060048201526032602482015260008051602062003d7183398151915260448201527131b2b4bb32b91034b6b83632b6b2b73a32b960711b60648201526084015b60405180910390fd5b505050565b6001600160a01b0382166200033c5760405162461bcd60e51b815260206004820181905260248201527f4552433732313a206d696e7420746f20746865207a65726f20616464726573736044820152606401620002d6565b6000818152600360205260409020546001600160a01b031615620003a35760405162461bcd60e51b815260206004820152601c60248201527f4552433732313a20746f6b656e20616c7265616479206d696e746564000000006044820152606401620002d6565b6001600160a01b0382166000908152600460205260408120805460019290620003ce90849062000805565b909155505060008181526003602052604080822080546001600160a01b0319166001600160a01b03861690811790915590518392907fddf252ad1be2c89b69c2b068fc378daa952ba7f163c4a11628f55a4df523b3ef908290a45050565b60006200044d846001600160a01b03166200058560201b620021321760201c565b156200057957604051630a85bd0160e11b81526001600160a01b0385169063150b7a0290620004879033908990889088906004016200082c565b6020604051808303816000875af1925050508015620004c5575060408051601f3d908101601f19168201909252620004c29181019062000882565b60015b6200055e573d808015620004f6576040519150601f19603f3d011682016040523d82523d6000602084013e620004fb565b606091505b508051620005565760405162461bcd60e51b8152602060048201526032602482015260008051602062003d7183398151915260448201527131b2b4bb32b91034b6b83632b6b2b73a32b960711b6064820152608401620002d6565b805181602001fd5b6001600160e01b031916630a85bd0160e11b1490506200057d565b5060015b949350505050565b3b151590565b8280546200059990620008b5565b90600052602060002090601f016020900481019282620005bd576000855562000608565b82601f10620005d857805160ff191683800117855562000608565b8280016001018555821562000608579182015b8281111562000608578251825591602001919060010190620005eb565b50620006169291506200061a565b5090565b5b808211156200061657600081556001016200061b565b634e487b7160e01b600052604160045260246000fd5b60005b83811015620006645781810151838201526020016200064a565b8381111562000674576000848401525b50505050565b600082601f8301126200068c57600080fd5b81516001600160401b0380821115620006a957620006a962000631565b604051601f8301601f19908116603f01168101908282118183101715620006d457620006d462000631565b81604052838152866020858801011115620006ee57600080fd5b6200070184602083016020890162000647565b9695505050505050565b80516001600160a01b03811681146200072357600080fd5b919050565b60008060008060008060c087890312156200074257600080fd5b86516001600160401b03808211156200075a57600080fd5b620007688a838b016200067a565b975060208901519150808211156200077f57600080fd5b6200078d8a838b016200067a565b96506200079d60408a016200070b565b9550620007ad60608a016200070b565b94506080890151915080821115620007c457600080fd5b620007d28a838b016200067a565b935060a0890151915080821115620007e957600080fd5b50620007f889828a016200067a565b9150509295509295509295565b600082198211156200082757634e487b7160e01b600052601160045260246000fd5b500190565b600060018060a01b0380871683528086166020840152508360408301526080606083015282518060808401526200086b8160a085016020870162000647565b601f01601f19169190910160a00195945050505050565b6000602082840312156200089557600080fd5b81516001600160e01b031981168114620008ae57600080fd5b9392505050565b600181811c90821680620008ca57607f821691505b60208210811415620008ec57634e487b7160e01b600052602260045260246000fd5b50919050565b61346f80620009026000396000f3fe6080604052600436106103295760003560e01c8063715018a6116101a5578063d25f4047116100ec578063ed4dcde611610095578063f2fde38b1161006f578063f2fde38b14610893578063f47c84c5146108b3578063fa468ead146108c9578063fe471ed5146108df57600080fd5b8063ed4dcde61461084c578063ee28de5214610861578063ee73408a1461088057600080fd5b8063e4a42551116100c6578063e4a42551146107cd578063e7db8fb0146107e3578063e985e9c51461080357600080fd5b8063d25f404714610777578063da3ef23f1461078d578063e0a80853146107ad57600080fd5b8063a22cb4651161014e578063b88d4fde11610128578063b88d4fde14610722578063c668286214610742578063c87b56dd1461075757600080fd5b8063a22cb465146106cd578063a45ba8e7146106ed578063add5a4fa1461070257600080fd5b80638da5cb5b1161017f5780638da5cb5b1461068057806395d89b411461069e578063a15d60c5146106b357600080fd5b8063715018a6146106355780637ff9b5961461064a57806385535cc51461066057600080fd5b8063353f849e116102745780634fdd43cb1161021d5780635ffe6146116101f75780635ffe6146146105b55780636352211e146105d55780636a61e5fc146105f557806370a082311461061557600080fd5b80634fdd43cb14610555578063518302271461057557806355f804b31461059557600080fd5b806342842e0e1161024e57806342842e0e146105025780634287084f1461052257806342966c681461053557600080fd5b8063353f849e146104c35780633ccfd60b146104d85780634047638d146104ed57600080fd5b80630f1e6828116102d657806320b2af52116102b057806320b2af521461047857806323b872dd1461048d5780632cb15fd3146104ad57600080fd5b80630f1e68281461041f57806318160ddd1461043f578063200ba9a61461046257600080fd5b8063081812fc11610307578063081812fc146103a7578063095ea7b3146103df5780630d738aeb146103ff57600080fd5b806301ffc9a71461032e578063046dc1661461036357806306fdde0314610385575b600080fd5b34801561033a57600080fd5b5061034e610349366004612df1565b6108ff565b60405190151581526020015b60405180910390f35b34801561036f57600080fd5b5061038361037e366004612e2a565b6109e4565b005b34801561039157600080fd5b5061039a610a72565b60405161035a9190612e9d565b3480156103b357600080fd5b506103c76103c2366004612eb0565b610b04565b6040516001600160a01b03909116815260200161035a565b3480156103eb57600080fd5b506103836103fa366004612ec9565b610baa565b34801561040b57600080fd5b5061038361041a366004612eb0565b610cdc565b34801561042b57600080fd5b5061038361043a366004612eb0565b610d3b565b34801561044b57600080fd5b50610454610d9a565b60405190815260200161035a565b34801561046e57600080fd5b50610454600f5481565b34801561048457600080fd5b5061039a610db6565b34801561049957600080fd5b506103836104a8366004612ef3565b610e44565b3480156104b957600080fd5b50610454600e5481565b3480156104cf57600080fd5b5061039a610ecb565b3480156104e457600080fd5b50610383610ed8565b3480156104f957600080fd5b50610383610f6e565b34801561050e57600080fd5b5061038361051d366004612ef3565b610fdc565b610383610530366004612eb0565b610ff7565b34801561054157600080fd5b50610383610550366004612eb0565b6111be565b34801561056157600080fd5b50610383610570366004612fbb565b611221565b34801561058157600080fd5b5060105461034e9062010000900460ff1681565b3480156105a157600080fd5b506103836105b0366004612fbb565b611292565b3480156105c157600080fd5b506103836105d0366004612eb0565b6112ff565b3480156105e157600080fd5b506103c76105f0366004612eb0565b6113e0565b34801561060157600080fd5b50610383610610366004612eb0565b61146b565b34801561062157600080fd5b50610454610630366004612e2a565b6114ca565b34801561064157600080fd5b50610383611564565b34801561065657600080fd5b50610454600c5481565b34801561066c57600080fd5b5061038361067b366004612e2a565b6115ca565b34801561068c57600080fd5b506000546001600160a01b03166103c7565b3480156106aa57600080fd5b5061039a611653565b3480156106bf57600080fd5b5060105461034e9060ff1681565b3480156106d957600080fd5b506103836106e8366004613014565b611662565b3480156106f957600080fd5b5061039a61166d565b34801561070e57600080fd5b5061038361071d366004612ec9565b61167a565b34801561072e57600080fd5b5061038361073d366004613047565b611787565b34801561074e57600080fd5b5061039a61180f565b34801561076357600080fd5b5061039a610772366004612eb0565b61181c565b34801561078357600080fd5b50610454600a5481565b34801561079957600080fd5b506103836107a8366004612fbb565b6119aa565b3480156107b957600080fd5b506103836107c83660046130c3565b611a17565b3480156107d957600080fd5b50610454600b5481565b3480156107ef57600080fd5b506103836107fe366004612eb0565b611aa9565b34801561080f57600080fd5b5061034e61081e3660046130de565b6001600160a01b03918216600090815260066020908152604080832093909416825291909152205460ff1690565b34801561085857600080fd5b50610383611b5a565b34801561086d57600080fd5b5060105461034e90610100900460ff1681565b61038361088e366004613108565b611bd1565b34801561089f57600080fd5b506103836108ae366004612e2a565b611f9a565b3480156108bf57600080fd5b5061045461271081565b3480156108d557600080fd5b50610454600d5481565b3480156108eb57600080fd5b506103836108fa3660046131b6565b612079565b60007fffffffff0000000000000000000000000000000000000000000000000000000082167f80ac58cd00000000000000000000000000000000000000000000000000000000148061099257507fffffffff0000000000000000000000000000000000000000000000000000000082167f5b5e139f00000000000000000000000000000000000000000000000000000000145b806109de57507f01ffc9a7000000000000000000000000000000000000000000000000000000007fffffffff000000000000000000000000000000000000000000000000000000008316145b92915050565b6000546001600160a01b03163314610a435760405162461bcd60e51b815260206004820181905260248201527f4f776e61626c653a2063616c6c6572206973206e6f7420746865206f776e657260448201526064015b60405180910390fd5b6015805473ffffffffffffffffffffffffffffffffffffffff19166001600160a01b0392909216919091179055565b606060018054610a819061320e565b80601f0160208091040260200160405190810160405280929190818152602001828054610aad9061320e565b8015610afa5780601f10610acf57610100808354040283529160200191610afa565b820191906000526020600020905b815481529060010190602001808311610add57829003601f168201915b5050505050905090565b6000818152600360205260408120546001600160a01b0316610b8e5760405162461bcd60e51b815260206004820152602c60248201527f4552433732313a20617070726f76656420717565727920666f72206e6f6e657860448201527f697374656e7420746f6b656e00000000000000000000000000000000000000006064820152608401610a3a565b506000908152600560205260409020546001600160a01b031690565b6000610bb5826113e0565b9050806001600160a01b0316836001600160a01b03161415610c3f5760405162461bcd60e51b815260206004820152602160248201527f4552433732313a20617070726f76616c20746f2063757272656e74206f776e6560448201527f72000000000000000000000000000000000000000000000000000000000000006064820152608401610a3a565b336001600160a01b0382161480610c5b5750610c5b813361081e565b610ccd5760405162461bcd60e51b815260206004820152603860248201527f4552433732313a20617070726f76652063616c6c6572206973206e6f74206f7760448201527f6e6572206e6f7220617070726f76656420666f7220616c6c00000000000000006064820152608401610a3a565b610cd78383612138565b505050565b6000546001600160a01b03163314610d365760405162461bcd60e51b815260206004820181905260248201527f4f776e61626c653a2063616c6c6572206973206e6f7420746865206f776e65726044820152606401610a3a565b600b55565b6000546001600160a01b03163314610d955760405162461bcd60e51b815260206004820181905260248201527f4f776e61626c653a2063616c6c6572206973206e6f7420746865206f776e65726044820152606401610a3a565b600a55565b60006001610da760085490565b610db1919061325f565b905090565b60178054610dc39061320e565b80601f0160208091040260200160405190810160405280929190818152602001828054610def9061320e565b8015610e3c5780601f10610e1157610100808354040283529160200191610e3c565b820191906000526020600020905b815481529060010190602001808311610e1f57829003601f168201915b505050505081565b610e4e33826121b3565b610ec05760405162461bcd60e51b815260206004820152603160248201527f4552433732313a207472616e736665722063616c6c6572206973206e6f74206f60448201527f776e6572206e6f7220617070726f7665640000000000000000000000000000006064820152608401610a3a565b610cd78383836122bb565b60188054610dc39061320e565b6000546001600160a01b03163314610f325760405162461bcd60e51b815260206004820181905260248201527f4f776e61626c653a2063616c6c6572206973206e6f7420746865206f776e65726044820152606401610a3a565b6014546040516001600160a01b03909116904780156108fc02916000818181858888f19350505050158015610f6b573d6000803e3d6000fd5b50565b6000546001600160a01b03163314610fc85760405162461bcd60e51b815260206004820181905260248201527f4f776e61626c653a2063616c6c6572206973206e6f7420746865206f776e65726044820152606401610a3a565b6010805460ff19811660ff90911615179055565b610cd783838360405180602001604052806000815250611787565b3481600c546110069190613276565b11156110545760405162461bcd60e51b815260206004820152601560248201527f4e6f7420656e6f7567682065746865722073656e7400000000000000000000006044820152606401610a3a565b600061105f60085490565b9050600a548211156110b35760405162461bcd60e51b815260206004820152601560248201527f4d696e7420616d6f756e7420746f6f206c6172676500000000000000000000006044820152606401610a3a565b600f546110c09083613276565b60105490925060ff16151560011461111a5760405162461bcd60e51b815260206004820152601260248201527f5075626c6963204d696e7420436c6f73656400000000000000000000000000006044820152606401610a3a565b61271061112860018361325f565b6111329084613295565b11156111805760405162461bcd60e51b815260206004820152601b60248201527f4e6f7420656e6f75676820746f6b656e732072656d61696e696e6700000000006044820152606401610a3a565b60005b82811015610cd757611199600880546001019055565b6111ac336111a78385613295565b612495565b806111b6816132ad565b915050611183565b6000546001600160a01b031633146112185760405162461bcd60e51b815260206004820181905260248201527f4f776e61626c653a2063616c6c6572206973206e6f7420746865206f776e65726044820152606401610a3a565b610f6b816124af565b6000546001600160a01b0316331461127b5760405162461bcd60e51b815260206004820181905260248201527f4f776e61626c653a2063616c6c6572206973206e6f7420746865206f776e65726044820152606401610a3a565b805161128e906013906020840190612cf4565b5050565b6000546001600160a01b031633146112ec5760405162461bcd60e51b815260206004820181905260248201527f4f776e61626c653a2063616c6c6572206973206e6f7420746865206f776e65726044820152606401610a3a565b805161128e906011906020840190612cf4565b6000546001600160a01b031633146113595760405162461bcd60e51b815260206004820181905260248201527f4f776e61626c653a2063616c6c6572206973206e6f7420746865206f776e65726044820152606401610a3a565b6000811180156113695750600581105b6113db5760405162461bcd60e51b815260206004820152602560248201527f5f6d756c7469706c696572206d7573742062652067726561746572207468616e60448201527f207a65726f0000000000000000000000000000000000000000000000000000006064820152608401610a3a565b600f55565b6000818152600360205260408120546001600160a01b0316806109de5760405162461bcd60e51b815260206004820152602960248201527f4552433732313a206f776e657220717565727920666f72206e6f6e657869737460448201527f656e7420746f6b656e00000000000000000000000000000000000000000000006064820152608401610a3a565b6000546001600160a01b031633146114c55760405162461bcd60e51b815260206004820181905260248201527f4f776e61626c653a2063616c6c6572206973206e6f7420746865206f776e65726044820152606401610a3a565b600c55565b60006001600160a01b0382166115485760405162461bcd60e51b815260206004820152602a60248201527f4552433732313a2062616c616e636520717565727920666f7220746865207a6560448201527f726f2061646472657373000000000000000000000000000000000000000000006064820152608401610a3a565b506001600160a01b031660009081526004602052604090205490565b6000546001600160a01b031633146115be5760405162461bcd60e51b815260206004820181905260248201527f4f776e61626c653a2063616c6c6572206973206e6f7420746865206f776e65726044820152606401610a3a565b6115c860006124b8565b565b6000546001600160a01b031633146116245760405162461bcd60e51b815260206004820181905260248201527f4f776e61626c653a2063616c6c6572206973206e6f7420746865206f776e65726044820152606401610a3a565b6014805473ffffffffffffffffffffffffffffffffffffffff19166001600160a01b0392909216919091179055565b606060028054610a819061320e565b61128e338383612515565b60138054610dc39061320e565b6000546001600160a01b031633146116d45760405162461bcd60e51b815260206004820181905260248201527f4f776e61626c653a2063616c6c6572206973206e6f7420746865206f776e65726044820152606401610a3a565b60006116df60085490565b9050612710826116f060018461325f565b6116fa9190613295565b11156117485760405162461bcd60e51b815260206004820152601b60248201527f4e6f7420656e6f75676820746f6b656e732072656d61696e696e6700000000006044820152606401610a3a565b60005b8281101561178157611761600880546001019055565b61176f846111a78385613295565b80611779816132ad565b91505061174b565b50505050565b61179133836121b3565b6118035760405162461bcd60e51b815260206004820152603160248201527f4552433732313a207472616e736665722063616c6c6572206973206e6f74206f60448201527f776e6572206e6f7220617070726f7665640000000000000000000000000000006064820152608401610a3a565b611781848484846125e4565b60128054610dc39061320e565b6000818152600360205260409020546060906001600160a01b03166118a95760405162461bcd60e51b815260206004820152602f60248201527f4552433732314d657461646174613a2055524920717565727920666f72206e6f60448201527f6e6578697374656e7420746f6b656e00000000000000000000000000000000006064820152608401610a3a565b60105462010000900460ff1661194b57601380546118c69061320e565b80601f01602080910402602001604051908101604052809291908181526020018280546118f29061320e565b801561193f5780601f106119145761010080835404028352916020019161193f565b820191906000526020600020905b81548152906001019060200180831161192257829003601f168201915b50505050509050919050565b600061195561266d565b9050600081511161197557604051806020016040528060008152506119a3565b8061197f8461267c565b6012604051602001611993939291906132c8565b6040516020818303038152906040525b9392505050565b6000546001600160a01b03163314611a045760405162461bcd60e51b815260206004820181905260248201527f4f776e61626c653a2063616c6c6572206973206e6f7420746865206f776e65726044820152606401610a3a565b805161128e906012906020840190612cf4565b6000546001600160a01b03163314611a715760405162461bcd60e51b815260206004820181905260248201527f4f776e61626c653a2063616c6c6572206973206e6f7420746865206f776e65726044820152606401610a3a565b6010805491151562010000027fffffffffffffffffffffffffffffffffffffffffffffffffffffffffff00ffff909216919091179055565b6000546001600160a01b03163314611b035760405162461bcd60e51b815260206004820181905260248201527f4f776e61626c653a2063616c6c6572206973206e6f7420746865206f776e65726044820152606401610a3a565b612710811115611b555760405162461bcd60e51b815260206004820152601a60248201527f46726565206d696e7420616d6f756e7420746f6f206c617267650000000000006044820152606401610a3a565b600e55565b6000546001600160a01b03163314611bb45760405162461bcd60e51b815260206004820181905260248201527f4f776e61626c653a2063616c6c6572206973206e6f7420746865206f776e65726044820152606401610a3a565b6010805461ff001981166101009182900460ff1615909102179055565b818160008233604051602001611bfa9291909182526001600160a01b0316602082015260400190565b604051602081830303815290604052805190602001209050611c1c81836127ae565b611c685760405162461bcd60e51b815260206004820152600c60248201527f496e76616c6964205061737300000000000000000000000000000000000000006044820152606401610a3a565b3486600d54611c779190613276565b1115611cc55760405162461bcd60e51b815260206004820152601560248201527f4e6f7420656e6f7567682065746865722073656e7400000000000000000000006044820152606401610a3a565b6000611cd060085490565b9050600f5487611ce09190613276565b60105490975060ff610100909104161515600114611d405760405162461bcd60e51b815260206004820152601160248201527f436c61696d204d696e7420436c6f7365640000000000000000000000000000006044820152606401610a3a565b612710611d4e60018361325f565b611d589089613295565b1115611da65760405162461bcd60e51b815260206004820152601b60248201527f4e6f7420656e6f75676820746f6b656e732072656d61696e696e6700000000006044820152606401610a3a565b85871115611e1c5760405162461bcd60e51b815260206004820152602d60248201527f4d696e74207175616e746974792063616e27742062652067726561746572207460448201527f68616e20636c61696d61626c65000000000000000000000000000000000000006064820152608401610a3a565b60008711611e925760405162461bcd60e51b815260206004820152602760248201527f4d696e74207175616e74697479206d757374206265206772656174657220746860448201527f616e207a65726f000000000000000000000000000000000000000000000000006064820152608401610a3a565b600b54871115611ee45760405162461bcd60e51b815260206004820152601760248201527f4d696e74207175616e7469747920746f6f206c617267650000000000000000006044820152606401610a3a565b600e5487611ef160095490565b611efb9190613295565b1115611f495760405162461bcd60e51b815260206004820152601f60248201527f4e6f7420656e6f7567682066726565206d696e74732072656d61696e696e67006044820152606401610a3a565b60005b87811015611f9057611f62600880546001019055565b611f70600980546001019055565b611f7e336111a78385613295565b80611f88816132ad565b915050611f4c565b5050505050505050565b6000546001600160a01b03163314611ff45760405162461bcd60e51b815260206004820181905260248201527f4f776e61626c653a2063616c6c6572206973206e6f7420746865206f776e65726044820152606401610a3a565b6001600160a01b0381166120705760405162461bcd60e51b815260206004820152602660248201527f4f776e61626c653a206e6577206f776e657220697320746865207a65726f206160448201527f64647265737300000000000000000000000000000000000000000000000000006064820152608401610a3a565b610f6b816124b8565b6000546001600160a01b031633146120d35760405162461bcd60e51b815260206004820181905260248201527f4f776e61626c653a2063616c6c6572206973206e6f7420746865206f776e65726044820152606401610a3a565b600d94909455600c94909455600a91909155600b55601080547fffffffffffffffffffffffffffffffffffffffffffffffffffffffffffff00001692151561ff0019169290921761010091151591909102179055565b80546001019055565b3b151590565b6000818152600560205260409020805473ffffffffffffffffffffffffffffffffffffffff19166001600160a01b038416908117909155819061217a826113e0565b6001600160a01b03167f8c5be1e5ebec7d5bd14f71427d1e84f3dd0314c0f7b2291e5b200ac8c7c3b92560405160405180910390a45050565b6000818152600360205260408120546001600160a01b031661223d5760405162461bcd60e51b815260206004820152602c60248201527f4552433732313a206f70657261746f7220717565727920666f72206e6f6e657860448201527f697374656e7420746f6b656e00000000000000000000000000000000000000006064820152608401610a3a565b6000612248836113e0565b9050806001600160a01b0316846001600160a01b031614806122835750836001600160a01b031661227884610b04565b6001600160a01b0316145b806122b357506001600160a01b0380821660009081526006602090815260408083209388168352929052205460ff165b949350505050565b826001600160a01b03166122ce826113e0565b6001600160a01b03161461234a5760405162461bcd60e51b815260206004820152602960248201527f4552433732313a207472616e73666572206f6620746f6b656e2074686174206960448201527f73206e6f74206f776e00000000000000000000000000000000000000000000006064820152608401610a3a565b6001600160a01b0382166123c55760405162461bcd60e51b8152602060048201526024808201527f4552433732313a207472616e7366657220746f20746865207a65726f2061646460448201527f72657373000000000000000000000000000000000000000000000000000000006064820152608401610a3a565b6123d0600082612138565b6001600160a01b03831660009081526004602052604081208054600192906123f990849061325f565b90915550506001600160a01b0382166000908152600460205260408120805460019290612427908490613295565b9091555050600081815260036020526040808220805473ffffffffffffffffffffffffffffffffffffffff19166001600160a01b0386811691821790925591518493918716917fddf252ad1be2c89b69c2b068fc378daa952ba7f163c4a11628f55a4df523b3ef91a4505050565b61128e828260405180602001604052806000815250612896565b610f6b8161291f565b600080546001600160a01b0383811673ffffffffffffffffffffffffffffffffffffffff19831681178455604051919092169283917f8be0079c531659141344cd1fd0a4f28419497f9722a3daafe3b4186f6b6457e09190a35050565b816001600160a01b0316836001600160a01b031614156125775760405162461bcd60e51b815260206004820152601960248201527f4552433732313a20617070726f766520746f2063616c6c6572000000000000006044820152606401610a3a565b6001600160a01b03838116600081815260066020908152604080832094871680845294825291829020805460ff191686151590811790915591519182527f17307eab39ab6107e8899845ad3d59bd9653f200f220920489ca2b5937696c31910160405180910390a3505050565b6125ef8484846122bb565b6125fb8484848461295f565b6117815760405162461bcd60e51b815260206004820152603260248201527f4552433732313a207472616e7366657220746f206e6f6e20455243373231526560448201527f63656976657220696d706c656d656e74657200000000000000000000000000006064820152608401610a3a565b606060118054610a819061320e565b6060816126bc57505060408051808201909152600181527f3000000000000000000000000000000000000000000000000000000000000000602082015290565b8160005b81156126e657806126d0816132ad565b91506126df9050600a836133a2565b91506126c0565b60008167ffffffffffffffff81111561270157612701612f2f565b6040519080825280601f01601f19166020018201604052801561272b576020820181803683370190505b5090505b84156122b35761274060018361325f565b915061274d600a866133b6565b612758906030613295565b60f81b81838151811061276d5761276d6133ca565b60200101907effffffffffffffffffffffffffffffffffffffffffffffffffffffffffffff1916908160001a9053506127a7600a866133a2565b945061272f565b600080600184846040015185600001518660200151604051600081526020016040526040516127f9949392919093845260ff9290921660208401526040830152606082015260800190565b6020604051602081039080840390855afa15801561281b573d6000803e3d6000fd5b5050604051601f1901519150506001600160a01b03811661287e5760405162461bcd60e51b815260206004820152601860248201527f45434453413a20696e76616c6964207369676e617475726500000000000000006044820152606401610a3a565b6015546001600160a01b039081169116149392505050565b6128a08383612afd565b6128ad600084848461295f565b610cd75760405162461bcd60e51b815260206004820152603260248201527f4552433732313a207472616e7366657220746f206e6f6e20455243373231526560448201527f63656976657220696d706c656d656e74657200000000000000000000000000006064820152608401610a3a565b61292881612c4c565b600081815260076020526040902080546129419061320e565b159050610f6b576000818152600760205260408120610f6b91612d78565b60006001600160a01b0384163b15612af2576040517f150b7a020000000000000000000000000000000000000000000000000000000081526001600160a01b0385169063150b7a02906129bc9033908990889088906004016133e0565b6020604051808303816000875af19250505080156129f7575060408051601f3d908101601f191682019092526129f49181019061341c565b60015b612aa7573d808015612a25576040519150601f19603f3d011682016040523d82523d6000602084013e612a2a565b606091505b508051612a9f5760405162461bcd60e51b815260206004820152603260248201527f4552433732313a207472616e7366657220746f206e6f6e20455243373231526560448201527f63656976657220696d706c656d656e74657200000000000000000000000000006064820152608401610a3a565b805181602001fd5b7fffffffff00000000000000000000000000000000000000000000000000000000167f150b7a02000000000000000000000000000000000000000000000000000000001490506122b3565b506001949350505050565b6001600160a01b038216612b535760405162461bcd60e51b815260206004820181905260248201527f4552433732313a206d696e7420746f20746865207a65726f20616464726573736044820152606401610a3a565b6000818152600360205260409020546001600160a01b031615612bb85760405162461bcd60e51b815260206004820152601c60248201527f4552433732313a20746f6b656e20616c7265616479206d696e746564000000006044820152606401610a3a565b6001600160a01b0382166000908152600460205260408120805460019290612be1908490613295565b9091555050600081815260036020526040808220805473ffffffffffffffffffffffffffffffffffffffff19166001600160a01b03861690811790915590518392907fddf252ad1be2c89b69c2b068fc378daa952ba7f163c4a11628f55a4df523b3ef908290a45050565b6000612c57826113e0565b9050612c64600083612138565b6001600160a01b0381166000908152600460205260408120805460019290612c8d90849061325f565b9091555050600082815260036020526040808220805473ffffffffffffffffffffffffffffffffffffffff19169055518391906001600160a01b038416907fddf252ad1be2c89b69c2b068fc378daa952ba7f163c4a11628f55a4df523b3ef908390a45050565b828054612d009061320e565b90600052602060002090601f016020900481019282612d225760008555612d68565b82601f10612d3b57805160ff1916838001178555612d68565b82800160010185558215612d68579182015b82811115612d68578251825591602001919060010190612d4d565b50612d74929150612dae565b5090565b508054612d849061320e565b6000825580601f10612d94575050565b601f016020900490600052602060002090810190610f6b91905b5b80821115612d745760008155600101612daf565b7fffffffff0000000000000000000000000000000000000000000000000000000081168114610f6b57600080fd5b600060208284031215612e0357600080fd5b81356119a381612dc3565b80356001600160a01b0381168114612e2557600080fd5b919050565b600060208284031215612e3c57600080fd5b6119a382612e0e565b60005b83811015612e60578181015183820152602001612e48565b838111156117815750506000910152565b60008151808452612e89816020860160208601612e45565b601f01601f19169290920160200192915050565b6020815260006119a36020830184612e71565b600060208284031215612ec257600080fd5b5035919050565b60008060408385031215612edc57600080fd5b612ee583612e0e565b946020939093013593505050565b600080600060608486031215612f0857600080fd5b612f1184612e0e565b9250612f1f60208501612e0e565b9150604084013590509250925092565b634e487b7160e01b600052604160045260246000fd5b600067ffffffffffffffff80841115612f6057612f60612f2f565b604051601f8501601f19908116603f01168101908282118183101715612f8857612f88612f2f565b81604052809350858152868686011115612fa157600080fd5b858560208301376000602087830101525050509392505050565b600060208284031215612fcd57600080fd5b813567ffffffffffffffff811115612fe457600080fd5b8201601f81018413612ff557600080fd5b6122b384823560208401612f45565b80358015158114612e2557600080fd5b6000806040838503121561302757600080fd5b61303083612e0e565b915061303e60208401613004565b90509250929050565b6000806000806080858703121561305d57600080fd5b61306685612e0e565b935061307460208601612e0e565b925060408501359150606085013567ffffffffffffffff81111561309757600080fd5b8501601f810187136130a857600080fd5b6130b787823560208401612f45565b91505092959194509250565b6000602082840312156130d557600080fd5b6119a382613004565b600080604083850312156130f157600080fd5b6130fa83612e0e565b915061303e60208401612e0e565b600080600083850360a081121561311e57600080fd5b843593506020850135925060607fffffffffffffffffffffffffffffffffffffffffffffffffffffffffffffffc08201121561315957600080fd5b506040516060810181811067ffffffffffffffff8211171561317d5761317d612f2f565b6040908152850135815260608501356020820152608085013560ff811681146131a557600080fd5b604082015292959194509192509050565b60008060008060008060c087890312156131cf57600080fd5b863595506020870135945060408701359350606087013592506131f460808801613004565b915061320260a08801613004565b90509295509295509295565b600181811c9082168061322257607f821691505b6020821081141561324357634e487b7160e01b600052602260045260246000fd5b50919050565b634e487b7160e01b600052601160045260246000fd5b60008282101561327157613271613249565b500390565b600081600019048311821515161561329057613290613249565b500290565b600082198211156132a8576132a8613249565b500190565b60006000198214156132c1576132c1613249565b5060010190565b6000845160206132db8285838a01612e45565b8551918401916132ee8184848a01612e45565b8554920191600090600181811c908083168061330b57607f831692505b85831081141561332957634e487b7160e01b85526022600452602485fd5b80801561333d576001811461334e5761337b565b60ff1985168852838801955061337b565b60008b81526020902060005b858110156133735781548a82015290840190880161335a565b505083880195505b50939b9a5050505050505050505050565b634e487b7160e01b600052601260045260246000fd5b6000826133b1576133b161338c565b500490565b6000826133c5576133c561338c565b500690565b634e487b7160e01b600052603260045260246000fd5b60006001600160a01b038087168352808616602084015250836040830152608060608301526134126080830184612e71565b9695505050505050565b60006020828403121561342e57600080fd5b81516119a381612dc356fea2646970667358221220ff99ac79d92a82a29d10f7f593f8dcb2b8fe0fff4366250f572cf7e443e6e49564736f6c634300080b00334552433732313a207472616e7366657220746f206e6f6e204552433732315265",
  "linkReferences": {},
  "deployedLinkReferences": {}
}