{
  "_format": "hh-sol-artifact-1",
  "contractName": "HaywireHorseyNFT",
  "sourceName": "contracts/HaywireHorsey.sol",
  "abi": [
    {
      "inputs": [
        {
          "internalType": "string",
          "name": "contractName",
          "type": "string"
        },
        {
          "internalType": "string",
          "name": "contractSymbol",
          "type": "string"
        },
        {
          "internalType": "address",
          "name": "_vault",
          "type": "address"
        },
        {
          "internalType": "address",
          "name": "_signer",
          "type": "address"
        },
        {
          "internalType": "string",
          "name": "__baseTokenURI",
          "type": "string"
        },
        {
          "internalType": "string",
          "name": "_hiddenMetadataUri",
          "type": "string"
        },
        {
          "internalType": "address[]",
          "name": "_payees",
          "type": "address[]"
        },
        {
          "internalType": "uint256[]",
          "name": "_shares",
          "type": "uint256[]"
        }
      ],
      "stateMutability": "payable",
      "type": "constructor"
    },
    {
      "anonymous": false,
      "inputs": [
        {
          "indexed": true,
          "internalType": "address",
          "name": "owner",
          "type": "address"
        },
        {
          "indexed": true,
          "internalType": "address",
          "name": "approved",
          "type": "address"
        },
        {
          "indexed": true,
          "internalType": "uint256",
          "name": "tokenId",
          "type": "uint256"
        }
      ],
      "name": "Approval",
      "type": "event"
    },
    {
      "anonymous": false,
      "inputs": [
        {
          "indexed": true,
          "internalType": "address",
          "name": "owner",
          "type": "address"
        },
        {
          "indexed": true,
          "internalType": "address",
          "name": "operator",
          "type": "address"
        },
        {
          "indexed": false,
          "internalType": "bool",
          "name": "approved",
          "type": "bool"
        }
      ],
      "name": "ApprovalForAll",
      "type": "event"
    },
    {
      "anonymous": false,
      "inputs": [
        {
          "indexed": true,
          "internalType": "contract IERC20",
          "name": "token",
          "type": "address"
        },
        {
          "indexed": false,
          "internalType": "address",
          "name": "to",
          "type": "address"
        },
        {
          "indexed": false,
          "internalType": "uint256",
          "name": "amount",
          "type": "uint256"
        }
      ],
      "name": "ERC20PaymentReleased",
      "type": "event"
    },
    {
      "anonymous": false,
      "inputs": [
        {
          "indexed": true,
          "internalType": "address",
          "name": "previousOwner",
          "type": "address"
        },
        {
          "indexed": true,
          "internalType": "address",
          "name": "newOwner",
          "type": "address"
        }
      ],
      "name": "OwnershipTransferred",
      "type": "event"
    },
    {
      "anonymous": false,
      "inputs": [
        {
          "indexed": false,
          "internalType": "address",
          "name": "account",
          "type": "address"
        },
        {
          "indexed": false,
          "internalType": "uint256",
          "name": "shares",
          "type": "uint256"
        }
      ],
      "name": "PayeeAdded",
      "type": "event"
    },
    {
      "anonymous": false,
      "inputs": [
        {
          "indexed": false,
          "internalType": "address",
          "name": "from",
          "type": "address"
        },
        {
          "indexed": false,
          "internalType": "uint256",
          "name": "amount",
          "type": "uint256"
        }
      ],
      "name": "PaymentReceived",
      "type": "event"
    },
    {
      "anonymous": false,
      "inputs": [
        {
          "indexed": false,
          "internalType": "address",
          "name": "to",
          "type": "address"
        },
        {
          "indexed": false,
          "internalType": "uint256",
          "name": "amount",
          "type": "uint256"
        }
      ],
      "name": "PaymentReleased",
      "type": "event"
    },
    {
      "anonymous": false,
      "inputs": [
        {
          "indexed": true,
          "internalType": "address",
          "name": "from",
          "type": "address"
        },
        {
          "indexed": true,
          "internalType": "address",
          "name": "to",
          "type": "address"
        },
        {
          "indexed": true,
          "internalType": "uint256",
          "name": "tokenId",
          "type": "uint256"
        }
      ],
      "name": "Transfer",
      "type": "event"
    },
    {
      "inputs": [],
      "name": "Author",
      "outputs": [
        {
          "internalType": "string",
          "name": "",
          "type": "string"
        }
      ],
      "stateMutability": "view",
      "type": "function"
    },
    {
      "inputs": [],
      "name": "MAX_TOKENS",
      "outputs": [
        {
          "internalType": "uint256",
          "name": "",
          "type": "uint256"
        }
      ],
      "stateMutability": "view",
      "type": "function"
    },
    {
      "inputs": [],
      "name": "ProjectTeam",
      "outputs": [
        {
          "internalType": "string",
          "name": "",
          "type": "string"
        }
      ],
      "stateMutability": "view",
      "type": "function"
    },
    {
      "inputs": [
        {
          "internalType": "address",
          "name": "to",
          "type": "address"
        },
        {
          "internalType": "uint256",
          "name": "tokenId",
          "type": "uint256"
        }
      ],
      "name": "approve",
      "outputs": [],
      "stateMutability": "nonpayable",
      "type": "function"
    },
    {
      "inputs": [
        {
          "internalType": "address",
          "name": "owner",
          "type": "address"
        }
      ],
      "name": "balanceOf",
      "outputs": [
        {
          "internalType": "uint256",
          "name": "",
          "type": "uint256"
        }
      ],
      "stateMutability": "view",
      "type": "function"
    },
    {
      "inputs": [],
      "name": "baseExtension",
      "outputs": [
        {
          "internalType": "string",
          "name": "",
          "type": "string"
        }
      ],
      "stateMutability": "view",
      "type": "function"
    },
    {
      "inputs": [
        {
          "internalType": "uint256",
          "name": "tokenId",
          "type": "uint256"
        }
      ],
      "name": "burn",
      "outputs": [],
      "stateMutability": "nonpayable",
      "type": "function"
    },
    {
      "inputs": [],
      "name": "buyBonusMultiplier",
      "outputs": [
        {
          "internalType": "uint256",
          "name": "",
          "type": "uint256"
        }
      ],
      "stateMutability": "view",
      "type": "function"
    },
    {
      "inputs": [
        {
          "internalType": "uint256",
          "name": "tokenId",
          "type": "uint256"
        }
      ],
      "name": "getApproved",
      "outputs": [
        {
          "internalType": "address",
          "name": "",
          "type": "address"
        }
      ],
      "stateMutability": "view",
      "type": "function"
    },
    {
      "inputs": [],
      "name": "hiddenMetadataUri",
      "outputs": [
        {
          "internalType": "string",
          "name": "",
          "type": "string"
        }
      ],
      "stateMutability": "view",
      "type": "function"
    },
    {
      "inputs": [
        {
          "internalType": "address",
          "name": "owner",
          "type": "address"
        },
        {
          "internalType": "address",
          "name": "operator",
          "type": "address"
        }
      ],
      "name": "isApprovedForAll",
      "outputs": [
        {
          "internalType": "bool",
          "name": "",
          "type": "bool"
        }
      ],
      "stateMutability": "view",
      "type": "function"
    },
    {
      "inputs": [],
      "name": "maxWhitelistPassMints",
      "outputs": [
        {
          "internalType": "uint256",
          "name": "",
          "type": "uint256"
        }
      ],
      "stateMutability": "view",
      "type": "function"
    },
    {
      "inputs": [],
      "name": "name",
      "outputs": [
        {
          "internalType": "string",
          "name": "",
          "type": "string"
        }
      ],
      "stateMutability": "view",
      "type": "function"
    },
    {
      "inputs": [
        {
          "internalType": "uint256",
          "name": "quantity",
          "type": "uint256"
        }
      ],
      "name": "openMint",
      "outputs": [],
      "stateMutability": "payable",
      "type": "function"
    },
    {
      "inputs": [],
      "name": "owner",
      "outputs": [
        {
          "internalType": "address",
          "name": "",
          "type": "address"
        }
      ],
      "stateMutability": "view",
      "type": "function"
    },
    {
      "inputs": [
        {
          "internalType": "uint256",
          "name": "tokenId",
          "type": "uint256"
        }
      ],
      "name": "ownerOf",
      "outputs": [
        {
          "internalType": "address",
          "name": "",
          "type": "address"
        }
      ],
      "stateMutability": "view",
      "type": "function"
    },
    {
      "inputs": [
        {
          "internalType": "uint256",
          "name": "index",
          "type": "uint256"
        }
      ],
      "name": "payee",
      "outputs": [
        {
          "internalType": "address",
          "name": "",
          "type": "address"
        }
      ],
      "stateMutability": "view",
      "type": "function"
    },
    {
      "inputs": [],
      "name": "privateMintIsOpen",
      "outputs": [
        {
          "internalType": "bool",
          "name": "",
          "type": "bool"
        }
      ],
      "stateMutability": "view",
      "type": "function"
    },
    {
      "inputs": [],
      "name": "publicMintIsOpen",
      "outputs": [
        {
          "internalType": "bool",
          "name": "",
          "type": "bool"
        }
      ],
      "stateMutability": "view",
      "type": "function"
    },
    {
      "inputs": [],
      "name": "publicMintMaxLimit",
      "outputs": [
        {
          "internalType": "uint256",
          "name": "",
          "type": "uint256"
        }
      ],
      "stateMutability": "view",
      "type": "function"
    },
    {
      "inputs": [
        {
          "internalType": "address payable",
          "name": "account",
          "type": "address"
        }
      ],
      "name": "release",
      "outputs": [],
      "stateMutability": "nonpayable",
      "type": "function"
    },
    {
      "inputs": [
        {
          "internalType": "contract IERC20",
          "name": "token",
          "type": "address"
        },
        {
          "internalType": "address",
          "name": "account",
          "type": "address"
        }
      ],
      "name": "release",
      "outputs": [],
      "stateMutability": "nonpayable",
      "type": "function"
    },
    {
      "inputs": [
        {
          "internalType": "contract IERC20",
          "name": "token",
          "type": "address"
        },
        {
          "internalType": "address",
          "name": "account",
          "type": "address"
        }
      ],
      "name": "released",
      "outputs": [
        {
          "internalType": "uint256",
          "name": "",
          "type": "uint256"
        }
      ],
      "stateMutability": "view",
      "type": "function"
    },
    {
      "inputs": [
        {
          "internalType": "address",
          "name": "account",
          "type": "address"
        }
      ],
      "name": "released",
      "outputs": [
        {
          "internalType": "uint256",
          "name": "",
          "type": "uint256"
        }
      ],
      "stateMutability": "view",
      "type": "function"
    },
    {
      "inputs": [],
      "name": "renounceOwnership",
      "outputs": [],
      "stateMutability": "nonpayable",
      "type": "function"
    },
    {
      "inputs": [],
      "name": "revealed",
      "outputs": [
        {
          "internalType": "bool",
          "name": "",
          "type": "bool"
        }
      ],
      "stateMutability": "view",
      "type": "function"
    },
    {
      "inputs": [
        {
          "internalType": "address",
          "name": "from",
          "type": "address"
        },
        {
          "internalType": "address",
          "name": "to",
          "type": "address"
        },
        {
          "internalType": "uint256",
          "name": "tokenId",
          "type": "uint256"
        }
      ],
      "name": "safeTransferFrom",
      "outputs": [],
      "stateMutability": "nonpayable",
      "type": "function"
    },
    {
      "inputs": [
        {
          "internalType": "address",
          "name": "from",
          "type": "address"
        },
        {
          "internalType": "address",
          "name": "to",
          "type": "address"
        },
        {
          "internalType": "uint256",
          "name": "tokenId",
          "type": "uint256"
        },
        {
          "internalType": "bytes",
          "name": "_data",
          "type": "bytes"
        }
      ],
      "name": "safeTransferFrom",
      "outputs": [],
      "stateMutability": "nonpayable",
      "type": "function"
    },
    {
      "inputs": [
        {
          "internalType": "address",
          "name": "operator",
          "type": "address"
        },
        {
          "internalType": "bool",
          "name": "approved",
          "type": "bool"
        }
      ],
      "name": "setApprovalForAll",
      "outputs": [],
      "stateMutability": "nonpayable",
      "type": "function"
    },
    {
      "inputs": [
        {
          "internalType": "string",
          "name": "_baseExtension",
          "type": "string"
        }
      ],
      "name": "setBaseExtension",
      "outputs": [],
      "stateMutability": "nonpayable",
      "type": "function"
    },
    {
      "inputs": [
        {
          "internalType": "string",
          "name": "newBaseURI",
          "type": "string"
        }
      ],
      "name": "setBaseURI",
      "outputs": [],
      "stateMutability": "nonpayable",
      "type": "function"
    },
    {
      "inputs": [
        {
          "internalType": "uint256",
          "name": "amount",
          "type": "uint256"
        }
      ],
      "name": "setFreeMints",
      "outputs": [],
      "stateMutability": "nonpayable",
      "type": "function"
    },
    {
      "inputs": [
        {
          "internalType": "string",
          "name": "_hiddenMetadataUri",
          "type": "string"
        }
      ],
      "name": "setHiddenMetadataUri",
      "outputs": [],
      "stateMutability": "nonpayable",
      "type": "function"
    },
    {
      "inputs": [
        {
          "internalType": "uint256",
          "name": "newPrice",
          "type": "uint256"
        },
        {
          "internalType": "uint256",
          "name": "newWhitelistTokenPrice",
          "type": "uint256"
        },
        {
          "internalType": "uint256",
          "name": "setOpenMintLimit",
          "type": "uint256"
        },
        {
          "internalType": "uint256",
          "name": "setWhistlistPassMintLimit",
          "type": "uint256"
        },
        {
          "internalType": "bool",
          "name": "setPublicMintState",
          "type": "bool"
        },
        {
          "internalType": "bool",
          "name": "setPrivateMintState",
          "type": "bool"
        }
      ],
      "name": "setParams",
      "outputs": [],
      "stateMutability": "nonpayable",
      "type": "function"
    },
    {
      "inputs": [
        {
          "internalType": "bool",
          "name": "_state",
          "type": "bool"
        }
      ],
      "name": "setRevealed",
      "outputs": [],
      "stateMutability": "nonpayable",
      "type": "function"
    },
    {
      "inputs": [
        {
          "internalType": "address",
          "name": "newSigner",
          "type": "address"
        }
      ],
      "name": "setSignerAddress",
      "outputs": [],
      "stateMutability": "nonpayable",
      "type": "function"
    },
    {
      "inputs": [
        {
          "internalType": "uint256",
          "name": "newPrice",
          "type": "uint256"
        }
      ],
      "name": "setTokenPrice",
      "outputs": [],
      "stateMutability": "nonpayable",
      "type": "function"
    },
    {
      "inputs": [
        {
          "internalType": "uint256",
          "name": "newMintLimit",
          "type": "uint256"
        }
      ],
      "name": "setTransactionMintLimit",
      "outputs": [],
      "stateMutability": "nonpayable",
      "type": "function"
    },
    {
      "inputs": [
        {
          "internalType": "address",
          "name": "newVault",
          "type": "address"
        }
      ],
      "name": "setVaultAddress",
      "outputs": [],
      "stateMutability": "nonpayable",
      "type": "function"
    },
    {
      "inputs": [
        {
          "internalType": "uint256",
          "name": "newprivateMintLimit",
          "type": "uint256"
        }
      ],
      "name": "setWhitelistTransactionMintLimit",
      "outputs": [],
      "stateMutability": "nonpayable",
      "type": "function"
    },
    {
      "inputs": [
        {
          "internalType": "address",
          "name": "account",
          "type": "address"
        }
      ],
      "name": "shares",
      "outputs": [
        {
          "internalType": "uint256",
          "name": "",
          "type": "uint256"
        }
      ],
      "stateMutability": "view",
      "type": "function"
    },
    {
      "inputs": [
        {
          "internalType": "bytes4",
          "name": "interfaceId",
          "type": "bytes4"
        }
      ],
      "name": "supportsInterface",
      "outputs": [
        {
          "internalType": "bool",
          "name": "",
          "type": "bool"
        }
      ],
      "stateMutability": "view",
      "type": "function"
    },
    {
      "inputs": [],
      "name": "symbol",
      "outputs": [
        {
          "internalType": "string",
          "name": "",
          "type": "string"
        }
      ],
      "stateMutability": "view",
      "type": "function"
    },
    {
      "inputs": [
        {
          "internalType": "address",
          "name": "to",
          "type": "address"
        },
        {
          "internalType": "uint256",
          "name": "amount",
          "type": "uint256"
        }
      ],
      "name": "teamMint",
      "outputs": [],
      "stateMutability": "nonpayable",
      "type": "function"
    },
    {
      "inputs": [],
      "name": "togglePresaleMint",
      "outputs": [],
      "stateMutability": "nonpayable",
      "type": "function"
    },
    {
      "inputs": [],
      "name": "togglePublicMint",
      "outputs": [],
      "stateMutability": "nonpayable",
      "type": "function"
    },
    {
      "inputs": [],
      "name": "tokenPrice",
      "outputs": [
        {
          "internalType": "uint256",
          "name": "",
          "type": "uint256"
        }
      ],
      "stateMutability": "view",
      "type": "function"
    },
    {
      "inputs": [
        {
          "internalType": "uint256",
          "name": "_tokenId",
          "type": "uint256"
        }
      ],
      "name": "tokenURI",
      "outputs": [
        {
          "internalType": "string",
          "name": "",
          "type": "string"
        }
      ],
      "stateMutability": "view",
      "type": "function"
    },
    {
      "inputs": [
        {
          "internalType": "contract IERC20",
          "name": "token",
          "type": "address"
        }
      ],
      "name": "totalReleased",
      "outputs": [
        {
          "internalType": "uint256",
          "name": "",
          "type": "uint256"
        }
      ],
      "stateMutability": "view",
      "type": "function"
    },
    {
      "inputs": [],
      "name": "totalReleased",
      "outputs": [
        {
          "internalType": "uint256",
          "name": "",
          "type": "uint256"
        }
      ],
      "stateMutability": "view",
      "type": "function"
    },
    {
      "inputs": [],
      "name": "totalShares",
      "outputs": [
        {
          "internalType": "uint256",
          "name": "",
          "type": "uint256"
        }
      ],
      "stateMutability": "view",
      "type": "function"
    },
    {
      "inputs": [],
      "name": "totalSupply",
      "outputs": [
        {
          "internalType": "uint256",
          "name": "",
          "type": "uint256"
        }
      ],
      "stateMutability": "view",
      "type": "function"
    },
    {
      "inputs": [
        {
          "internalType": "address",
          "name": "from",
          "type": "address"
        },
        {
          "internalType": "address",
          "name": "to",
          "type": "address"
        },
        {
          "internalType": "uint256",
          "name": "tokenId",
          "type": "uint256"
        }
      ],
      "name": "transferFrom",
      "outputs": [],
      "stateMutability": "nonpayable",
      "type": "function"
    },
    {
      "inputs": [
        {
          "internalType": "address",
          "name": "newOwner",
          "type": "address"
        }
      ],
      "name": "transferOwnership",
      "outputs": [],
      "stateMutability": "nonpayable",
      "type": "function"
    },
    {
      "inputs": [
        {
          "internalType": "uint256",
          "name": "_multiplier",
          "type": "uint256"
        }
      ],
      "name": "updateMultiplier",
      "outputs": [],
      "stateMutability": "nonpayable",
      "type": "function"
    },
    {
      "inputs": [
        {
          "internalType": "uint256",
          "name": "quantity",
          "type": "uint256"
        },
        {
          "internalType": "uint256",
          "name": "claimable",
          "type": "uint256"
        },
        {
          "components": [
            {
              "internalType": "bytes32",
              "name": "r",
              "type": "bytes32"
            },
            {
              "internalType": "bytes32",
              "name": "s",
              "type": "bytes32"
            },
            {
              "internalType": "uint8",
              "name": "v",
              "type": "uint8"
            }
          ],
          "internalType": "struct HaywireHorseyNFT.WhitelistClaimPass",
          "name": "whitelistClaimPass",
          "type": "tuple"
        }
      ],
      "name": "whitelistClaimMint",
      "outputs": [],
      "stateMutability": "payable",
      "type": "function"
    },
    {
      "inputs": [],
      "name": "whitelistMintMaxLimit",
      "outputs": [
        {
          "internalType": "uint256",
          "name": "",
          "type": "uint256"
        }
      ],
      "stateMutability": "view",
      "type": "function"
    },
    {
      "inputs": [],
      "name": "whitelistTokenPrice",
      "outputs": [
        {
          "internalType": "uint256",
          "name": "",
          "type": "uint256"
        }
      ],
      "stateMutability": "view",
      "type": "function"
    },
    {
      "inputs": [],
      "name": "withdraw",
      "outputs": [],
      "stateMutability": "nonpayable",
      "type": "function"
    },
    {
      "stateMutability": "payable",
      "type": "receive"
    }
  ],
  "bytecode": "0x60326011819055601255662386f26fc10000601355600060145561030960155560016016556017805462ffffff1916905560c06040526005608081905264173539b7b760d91b60a09081526200005991601991906200089f565b50601b80546001600160a01b0319908116909155601c8054909116905560408051808201909152600680825265446961626c6f60d01b6020909201918252620000a591601e916200089f565b50604080518082019091526008808252676e667470756d707360c01b6020909201918252620000d791601f916200089f565b5060405162004d4638038062004d46833981016040819052620000fa9162000b4e565b81818989620001093362000313565b81516200011e9060019060208501906200089f565b508051620001349060029060208401906200089f565b5050508051825114620001a95760405162461bcd60e51b815260206004820152603260248201527f5061796d656e7453706c69747465723a2070617965657320616e6420736861726044820152710cae640d8cadccee8d040dad2e6dac2e8c6d60731b60648201526084015b60405180910390fd5b6000825111620001fc5760405162461bcd60e51b815260206004820152601a60248201527f5061796d656e7453706c69747465723a206e6f207061796565730000000000006044820152606401620001a0565b60005b825181101562000268576200025383828151811062000222576200022262000c7c565b60200260200101518383815181106200023f576200023f62000c7c565b60200260200101516200036360201b60201c565b806200025f8162000ca8565b915050620001ff565b5050601b80546001600160a01b03199081166001600160a01b038a811691909117909255601c805490911691881691909117905550620002b5600f62000551602090811b620027f317901c565b620002cc600f6200055160201b620027f31760201c565b620002d93360016200055a565b8351620002ee9060189060208701906200089f565b5082516200030490601a9060208601906200089f565b50505050505050505062000da7565b600080546001600160a01b038381166001600160a01b0319831681178455604051919092169283917f8be0079c531659141344cd1fd0a4f28419497f9722a3daafe3b4186f6b6457e09190a35050565b6001600160a01b038216620003d05760405162461bcd60e51b815260206004820152602c60248201527f5061796d656e7453706c69747465723a206163636f756e74206973207468652060448201526b7a65726f206164647265737360a01b6064820152608401620001a0565b60008111620004225760405162461bcd60e51b815260206004820152601d60248201527f5061796d656e7453706c69747465723a207368617265732061726520300000006044820152606401620001a0565b6001600160a01b0382166000908152600a6020526040902054156200049e5760405162461bcd60e51b815260206004820152602b60248201527f5061796d656e7453706c69747465723a206163636f756e7420616c726561647960448201526a206861732073686172657360a81b6064820152608401620001a0565b600c8054600181019091557fdf6966c971051c3d54ec59162606531493a51404a002842f56009d7e5cf4a8c70180546001600160a01b0319166001600160a01b0384169081179091556000908152600a602052604090208190556008546200050890829062000cc6565b600855604080516001600160a01b0384168152602081018390527f40c340f65e17194d14ddddb073d3c9f888e3cb52b5aae0c6c7706b4fbc905fac910160405180910390a15050565b80546001019055565b6200057c8282604051806020016040528060008152506200058060201b60201c565b5050565b6200058c8383620005f8565b6200059b600084848462000740565b620005f35760405162461bcd60e51b8152602060048201526032602482015260008051602062004d2683398151915260448201527131b2b4bb32b91034b6b83632b6b2b73a32b960711b6064820152608401620001a0565b505050565b6001600160a01b038216620006505760405162461bcd60e51b815260206004820181905260248201527f4552433732313a206d696e7420746f20746865207a65726f20616464726573736044820152606401620001a0565b6000818152600360205260409020546001600160a01b031615620006b75760405162461bcd60e51b815260206004820152601c60248201527f4552433732313a20746f6b656e20616c7265616479206d696e746564000000006044820152606401620001a0565b6001600160a01b0382166000908152600460205260408120805460019290620006e290849062000cc6565b909155505060008181526003602052604080822080546001600160a01b0319166001600160a01b03861690811790915590518392907fddf252ad1be2c89b69c2b068fc378daa952ba7f163c4a11628f55a4df523b3ef908290a45050565b600062000761846001600160a01b03166200089960201b620027fc1760201c565b156200088d57604051630a85bd0160e11b81526001600160a01b0385169063150b7a02906200079b90339089908890889060040162000ce1565b6020604051808303816000875af1925050508015620007d9575060408051601f3d908101601f19168201909252620007d69181019062000d37565b60015b62000872573d8080156200080a576040519150601f19603f3d011682016040523d82523d6000602084013e6200080f565b606091505b5080516200086a5760405162461bcd60e51b8152602060048201526032602482015260008051602062004d2683398151915260448201527131b2b4bb32b91034b6b83632b6b2b73a32b960711b6064820152608401620001a0565b805181602001fd5b6001600160e01b031916630a85bd0160e11b14905062000891565b5060015b949350505050565b3b151590565b828054620008ad9062000d6a565b90600052602060002090601f016020900481019282620008d157600085556200091c565b82601f10620008ec57805160ff19168380011785556200091c565b828001600101855582156200091c579182015b828111156200091c578251825591602001919060010190620008ff565b506200092a9291506200092e565b5090565b5b808211156200092a57600081556001016200092f565b634e487b7160e01b600052604160045260246000fd5b604051601f8201601f191681016001600160401b038111828210171562000986576200098662000945565b604052919050565b60005b83811015620009ab57818101518382015260200162000991565b83811115620009bb576000848401525b50505050565b600082601f830112620009d357600080fd5b81516001600160401b03811115620009ef57620009ef62000945565b62000a04601f8201601f19166020016200095b565b81815284602083860101111562000a1a57600080fd5b620008918260208301602087016200098e565b80516001600160a01b038116811462000a4557600080fd5b919050565b60006001600160401b0382111562000a665762000a6662000945565b5060051b60200190565b600082601f83011262000a8257600080fd5b8151602062000a9b62000a958362000a4a565b6200095b565b82815260059290921b8401810191818101908684111562000abb57600080fd5b8286015b8481101562000ae15762000ad38162000a2d565b835291830191830162000abf565b509695505050505050565b600082601f83011262000afe57600080fd5b8151602062000b1162000a958362000a4a565b82815260059290921b8401810191818101908684111562000b3157600080fd5b8286015b8481101562000ae1578051835291830191830162000b35565b600080600080600080600080610100898b03121562000b6c57600080fd5b88516001600160401b038082111562000b8457600080fd5b62000b928c838d01620009c1565b995060208b015191508082111562000ba957600080fd5b62000bb78c838d01620009c1565b985062000bc760408c0162000a2d565b975062000bd760608c0162000a2d565b965060808b015191508082111562000bee57600080fd5b62000bfc8c838d01620009c1565b955060a08b015191508082111562000c1357600080fd5b62000c218c838d01620009c1565b945060c08b015191508082111562000c3857600080fd5b62000c468c838d0162000a70565b935060e08b015191508082111562000c5d57600080fd5b5062000c6c8b828c0162000aec565b9150509295985092959890939650565b634e487b7160e01b600052603260045260246000fd5b634e487b7160e01b600052601160045260246000fd5b600060001982141562000cbf5762000cbf62000c92565b5060010190565b6000821982111562000cdc5762000cdc62000c92565b500190565b600060018060a01b03808716835280861660208401525083604083015260806060830152825180608084015262000d208160a08501602087016200098e565b601f01601f19169190910160a00195945050505050565b60006020828403121562000d4a57600080fd5b81516001600160e01b03198116811462000d6357600080fd5b9392505050565b600181811c9082168062000d7f57607f821691505b6020821081141562000da157634e487b7160e01b600052602260045260246000fd5b50919050565b613f6f8062000db76000396000f3fe6080604052600436106103905760003560e01c8063715018a6116101dc578063d25f404711610102578063e985e9c5116100a0578063f2fde38b1161006f578063f2fde38b14610ab5578063f47c84c514610ad5578063fa468ead14610aeb578063fe471ed514610b0157600080fd5b8063e985e9c514610a25578063ed4dcde614610a6e578063ee28de5214610a83578063ee73408a14610aa257600080fd5b8063e0a80853116100dc578063e0a80853146109ba578063e33b7de3146109da578063e4a42551146109ef578063e7db8fb014610a0557600080fd5b8063d25f40471461094e578063d79779b214610964578063da3ef23f1461099a57600080fd5b8063a15d60c51161017a578063b88d4fde11610149578063b88d4fde146108c3578063c6682862146108e3578063c87b56dd146108f8578063ce7c2ac21461091857600080fd5b8063a15d60c514610854578063a22cb4651461086e578063a45ba8e71461088e578063add5a4fa146108a357600080fd5b80638b83209b116101b65780638b83209b146107cb5780638da5cb5b146107eb57806395d89b41146108095780639852595c1461081e57600080fd5b8063715018a6146107805780637ff9b5961461079557806385535cc5146107ab57600080fd5b80633a98ef39116102c157806348b750441161025f5780635ffe61461161022e5780635ffe6146146107005780636352211e146107205780636a61e5fc1461074057806370a082311461076057600080fd5b806348b75044146106805780634fdd43cb146106a057806351830227146106c057806355f804b3146106e057600080fd5b8063406072a91161029b578063406072a9146105e757806342842e0e1461062d5780634287084f1461064d57806342966c681461066057600080fd5b80633a98ef39146105a85780633ccfd60b146105bd5780634047638d146105d257600080fd5b806318160ddd1161032e57806320b2af521161030857806320b2af521461054857806323b872dd1461055d5780632cb15fd31461057d578063353f849e1461059357600080fd5b806318160ddd146104ef5780631916558714610512578063200ba9a61461053257600080fd5b8063081812fc1161036a578063081812fc14610457578063095ea7b31461048f5780630d738aeb146104af5780630f1e6828146104cf57600080fd5b806301ffc9a7146103de578063046dc1661461041357806306fdde031461043557600080fd5b366103d9577f6ef95f06320e7a25a04a175ca677b7052bdd97131872c2192525a629f51be77033604080516001600160a01b0390921682523460208301520160405180910390a1005b600080fd5b3480156103ea57600080fd5b506103fe6103f9366004613889565b610b21565b60405190151581526020015b60405180910390f35b34801561041f57600080fd5b5061043361042e3660046138bb565b610c06565b005b34801561044157600080fd5b5061044a610c94565b60405161040a9190613930565b34801561046357600080fd5b50610477610472366004613943565b610d26565b6040516001600160a01b03909116815260200161040a565b34801561049b57600080fd5b506104336104aa36600461395c565b610dcc565b3480156104bb57600080fd5b506104336104ca366004613943565b610efe565b3480156104db57600080fd5b506104336104ea366004613943565b610f5d565b3480156104fb57600080fd5b50610504610fbc565b60405190815260200161040a565b34801561051e57600080fd5b5061043361052d3660046138bb565b610fd8565b34801561053e57600080fd5b5061050460165481565b34801561055457600080fd5b5061044a6111b2565b34801561056957600080fd5b50610433610578366004613988565b611240565b34801561058957600080fd5b5061050460155481565b34801561059f57600080fd5b5061044a6112c7565b3480156105b457600080fd5b50600854610504565b3480156105c957600080fd5b506104336112d4565b3480156105de57600080fd5b5061043361136a565b3480156105f357600080fd5b506105046106023660046139c9565b6001600160a01b039182166000908152600e6020908152604080832093909416825291909152205490565b34801561063957600080fd5b50610433610648366004613988565b6113d8565b61043361065b366004613943565b6113f3565b34801561066c57600080fd5b5061043361067b366004613943565b6115ba565b34801561068c57600080fd5b5061043361069b3660046139c9565b61161d565b3480156106ac57600080fd5b506104336106bb366004613a8e565b6118bb565b3480156106cc57600080fd5b506017546103fe9062010000900460ff1681565b3480156106ec57600080fd5b506104336106fb366004613a8e565b61192c565b34801561070c57600080fd5b5061043361071b366004613943565b611999565b34801561072c57600080fd5b5061047761073b366004613943565b611a7a565b34801561074c57600080fd5b5061043361075b366004613943565b611b05565b34801561076c57600080fd5b5061050461077b3660046138bb565b611b64565b34801561078c57600080fd5b50610433611bfe565b3480156107a157600080fd5b5061050460135481565b3480156107b757600080fd5b506104336107c63660046138bb565b611c64565b3480156107d757600080fd5b506104776107e6366004613943565b611ced565b3480156107f757600080fd5b506000546001600160a01b0316610477565b34801561081557600080fd5b5061044a611d1d565b34801561082a57600080fd5b506105046108393660046138bb565b6001600160a01b03166000908152600b602052604090205490565b34801561086057600080fd5b506017546103fe9060ff1681565b34801561087a57600080fd5b50610433610889366004613ae5565b611d2c565b34801561089a57600080fd5b5061044a611d37565b3480156108af57600080fd5b506104336108be36600461395c565b611d44565b3480156108cf57600080fd5b506104336108de366004613b13565b611e51565b3480156108ef57600080fd5b5061044a611ed9565b34801561090457600080fd5b5061044a610913366004613943565b611ee6565b34801561092457600080fd5b506105046109333660046138bb565b6001600160a01b03166000908152600a602052604090205490565b34801561095a57600080fd5b5061050460115481565b34801561097057600080fd5b5061050461097f3660046138bb565b6001600160a01b03166000908152600d602052604090205490565b3480156109a657600080fd5b506104336109b5366004613a8e565b612074565b3480156109c657600080fd5b506104336109d5366004613b93565b6120e1565b3480156109e657600080fd5b50600954610504565b3480156109fb57600080fd5b5061050460125481565b348015610a1157600080fd5b50610433610a20366004613943565b612173565b348015610a3157600080fd5b506103fe610a403660046139c9565b6001600160a01b03918216600090815260066020908152604080832093909416825291909152205460ff1690565b348015610a7a57600080fd5b50610433612224565b348015610a8f57600080fd5b506017546103fe90610100900460ff1681565b610433610ab0366004613bb0565b61229b565b348015610ac157600080fd5b50610433610ad03660046138bb565b612664565b348015610ae157600080fd5b5061050461030981565b348015610af757600080fd5b5061050460145481565b348015610b0d57600080fd5b50610433610b1c366004613c5e565b612743565b60007fffffffff0000000000000000000000000000000000000000000000000000000082167f80ac58cd000000000000000000000000000000000000000000000000000000001480610bb457507fffffffff0000000000000000000000000000000000000000000000000000000082167f5b5e139f00000000000000000000000000000000000000000000000000000000145b80610c0057507f01ffc9a7000000000000000000000000000000000000000000000000000000007fffffffff000000000000000000000000000000000000000000000000000000008316145b92915050565b6000546001600160a01b03163314610c655760405162461bcd60e51b815260206004820181905260248201527f4f776e61626c653a2063616c6c6572206973206e6f7420746865206f776e657260448201526064015b60405180910390fd5b601c805473ffffffffffffffffffffffffffffffffffffffff19166001600160a01b0392909216919091179055565b606060018054610ca390613cbc565b80601f0160208091040260200160405190810160405280929190818152602001828054610ccf90613cbc565b8015610d1c5780601f10610cf157610100808354040283529160200191610d1c565b820191906000526020600020905b815481529060010190602001808311610cff57829003601f168201915b5050505050905090565b6000818152600360205260408120546001600160a01b0316610db05760405162461bcd60e51b815260206004820152602c60248201527f4552433732313a20617070726f76656420717565727920666f72206e6f6e657860448201527f697374656e7420746f6b656e00000000000000000000000000000000000000006064820152608401610c5c565b506000908152600560205260409020546001600160a01b031690565b6000610dd782611a7a565b9050806001600160a01b0316836001600160a01b03161415610e615760405162461bcd60e51b815260206004820152602160248201527f4552433732313a20617070726f76616c20746f2063757272656e74206f776e6560448201527f72000000000000000000000000000000000000000000000000000000000000006064820152608401610c5c565b336001600160a01b0382161480610e7d5750610e7d8133610a40565b610eef5760405162461bcd60e51b815260206004820152603860248201527f4552433732313a20617070726f76652063616c6c6572206973206e6f74206f7760448201527f6e6572206e6f7220617070726f76656420666f7220616c6c00000000000000006064820152608401610c5c565b610ef98383612802565b505050565b6000546001600160a01b03163314610f585760405162461bcd60e51b815260206004820181905260248201527f4f776e61626c653a2063616c6c6572206973206e6f7420746865206f776e65726044820152606401610c5c565b601255565b6000546001600160a01b03163314610fb75760405162461bcd60e51b815260206004820181905260248201527f4f776e61626c653a2063616c6c6572206973206e6f7420746865206f776e65726044820152606401610c5c565b601155565b60006001610fc9600f5490565b610fd39190613d0d565b905090565b6001600160a01b0381166000908152600a60205260409020546110635760405162461bcd60e51b815260206004820152602660248201527f5061796d656e7453706c69747465723a206163636f756e7420686173206e6f2060448201527f73686172657300000000000000000000000000000000000000000000000000006064820152608401610c5c565b600061106e60095490565b6110789047613d24565b905060006110a583836110a0866001600160a01b03166000908152600b602052604090205490565b61287d565b90508061111a5760405162461bcd60e51b815260206004820152602b60248201527f5061796d656e7453706c69747465723a206163636f756e74206973206e6f742060448201527f647565207061796d656e740000000000000000000000000000000000000000006064820152608401610c5c565b6001600160a01b0383166000908152600b602052604081208054839290611142908490613d24565b92505081905550806009600082825461115b9190613d24565b9091555061116b905083826128c3565b604080516001600160a01b0385168152602081018390527fdf20fd1e76bc69d672e4814fafb2c449bba3a5369d8359adf9e05e6fde87b056910160405180910390a1505050565b601e80546111bf90613cbc565b80601f01602080910402602001604051908101604052809291908181526020018280546111eb90613cbc565b80156112385780601f1061120d57610100808354040283529160200191611238565b820191906000526020600020905b81548152906001019060200180831161121b57829003601f168201915b505050505081565b61124a33826129dc565b6112bc5760405162461bcd60e51b815260206004820152603160248201527f4552433732313a207472616e736665722063616c6c6572206973206e6f74206f60448201527f776e6572206e6f7220617070726f7665640000000000000000000000000000006064820152608401610c5c565b610ef9838383612ae3565b601f80546111bf90613cbc565b6000546001600160a01b0316331461132e5760405162461bcd60e51b815260206004820181905260248201527f4f776e61626c653a2063616c6c6572206973206e6f7420746865206f776e65726044820152606401610c5c565b601b546040516001600160a01b03909116904780156108fc02916000818181858888f19350505050158015611367573d6000803e3d6000fd5b50565b6000546001600160a01b031633146113c45760405162461bcd60e51b815260206004820181905260248201527f4f776e61626c653a2063616c6c6572206973206e6f7420746865206f776e65726044820152606401610c5c565b6017805460ff19811660ff90911615179055565b610ef983838360405180602001604052806000815250611e51565b34816013546114029190613d3c565b11156114505760405162461bcd60e51b815260206004820152601560248201527f4e6f7420656e6f7567682065746865722073656e7400000000000000000000006044820152606401610c5c565b600061145b600f5490565b90506011548211156114af5760405162461bcd60e51b815260206004820152601560248201527f4d696e7420616d6f756e7420746f6f206c6172676500000000000000000000006044820152606401610c5c565b6016546114bc9083613d3c565b60175490925060ff1615156001146115165760405162461bcd60e51b815260206004820152601260248201527f5075626c6963204d696e7420436c6f73656400000000000000000000000000006044820152606401610c5c565b610309611524600183613d0d565b61152e9084613d24565b111561157c5760405162461bcd60e51b815260206004820152601b60248201527f4e6f7420656e6f75676820746f6b656e732072656d61696e696e6700000000006044820152606401610c5c565b60005b82811015610ef957611595600f80546001019055565b6115a8336115a38385613d24565b612cbd565b806115b281613d5b565b91505061157f565b6000546001600160a01b031633146116145760405162461bcd60e51b815260206004820181905260248201527f4f776e61626c653a2063616c6c6572206973206e6f7420746865206f776e65726044820152606401610c5c565b61136781612cd7565b6001600160a01b0381166000908152600a60205260409020546116a85760405162461bcd60e51b815260206004820152602660248201527f5061796d656e7453706c69747465723a206163636f756e7420686173206e6f2060448201527f73686172657300000000000000000000000000000000000000000000000000006064820152608401610c5c565b6001600160a01b0382166000908152600d60205260408120546040517f70a082310000000000000000000000000000000000000000000000000000000081523060048201526001600160a01b038516906370a0823190602401602060405180830381865afa15801561171e573d6000803e3d6000fd5b505050506040513d601f19601f820116820180604052508101906117429190613d76565b61174c9190613d24565b9050600061178583836110a087876001600160a01b039182166000908152600e6020908152604080832093909416825291909152205490565b9050806117fa5760405162461bcd60e51b815260206004820152602b60248201527f5061796d656e7453706c69747465723a206163636f756e74206973206e6f742060448201527f647565207061796d656e740000000000000000000000000000000000000000006064820152608401610c5c565b6001600160a01b038085166000908152600e6020908152604080832093871683529290529081208054839290611831908490613d24565b90915550506001600160a01b0384166000908152600d60205260408120805483929061185e908490613d24565b9091555061186f9050848483612ce0565b604080516001600160a01b038581168252602082018490528616917f3be5b7a71e84ed12875d241991c70855ac5817d847039e17a9d895c1ceb0f18a910160405180910390a250505050565b6000546001600160a01b031633146119155760405162461bcd60e51b815260206004820181905260248201527f4f776e61626c653a2063616c6c6572206973206e6f7420746865206f776e65726044820152606401610c5c565b805161192890601a90602084019061378c565b5050565b6000546001600160a01b031633146119865760405162461bcd60e51b815260206004820181905260248201527f4f776e61626c653a2063616c6c6572206973206e6f7420746865206f776e65726044820152606401610c5c565b805161192890601890602084019061378c565b6000546001600160a01b031633146119f35760405162461bcd60e51b815260206004820181905260248201527f4f776e61626c653a2063616c6c6572206973206e6f7420746865206f776e65726044820152606401610c5c565b600081118015611a035750600581105b611a755760405162461bcd60e51b815260206004820152602560248201527f5f6d756c7469706c696572206d7573742062652067726561746572207468616e60448201527f207a65726f0000000000000000000000000000000000000000000000000000006064820152608401610c5c565b601655565b6000818152600360205260408120546001600160a01b031680610c005760405162461bcd60e51b815260206004820152602960248201527f4552433732313a206f776e657220717565727920666f72206e6f6e657869737460448201527f656e7420746f6b656e00000000000000000000000000000000000000000000006064820152608401610c5c565b6000546001600160a01b03163314611b5f5760405162461bcd60e51b815260206004820181905260248201527f4f776e61626c653a2063616c6c6572206973206e6f7420746865206f776e65726044820152606401610c5c565b601355565b60006001600160a01b038216611be25760405162461bcd60e51b815260206004820152602a60248201527f4552433732313a2062616c616e636520717565727920666f7220746865207a6560448201527f726f2061646472657373000000000000000000000000000000000000000000006064820152608401610c5c565b506001600160a01b031660009081526004602052604090205490565b6000546001600160a01b03163314611c585760405162461bcd60e51b815260206004820181905260248201527f4f776e61626c653a2063616c6c6572206973206e6f7420746865206f776e65726044820152606401610c5c565b611c626000612d60565b565b6000546001600160a01b03163314611cbe5760405162461bcd60e51b815260206004820181905260248201527f4f776e61626c653a2063616c6c6572206973206e6f7420746865206f776e65726044820152606401610c5c565b601b805473ffffffffffffffffffffffffffffffffffffffff19166001600160a01b0392909216919091179055565b6000600c8281548110611d0257611d02613d8f565b6000918252602090912001546001600160a01b031692915050565b606060028054610ca390613cbc565b611928338383612dbd565b601a80546111bf90613cbc565b6000546001600160a01b03163314611d9e5760405162461bcd60e51b815260206004820181905260248201527f4f776e61626c653a2063616c6c6572206973206e6f7420746865206f776e65726044820152606401610c5c565b6000611da9600f5490565b905061030982611dba600184613d0d565b611dc49190613d24565b1115611e125760405162461bcd60e51b815260206004820152601b60248201527f4e6f7420656e6f75676820746f6b656e732072656d61696e696e6700000000006044820152606401610c5c565b60005b82811015611e4b57611e2b600f80546001019055565b611e39846115a38385613d24565b80611e4381613d5b565b915050611e15565b50505050565b611e5b33836129dc565b611ecd5760405162461bcd60e51b815260206004820152603160248201527f4552433732313a207472616e736665722063616c6c6572206973206e6f74206f60448201527f776e6572206e6f7220617070726f7665640000000000000000000000000000006064820152608401610c5c565b611e4b84848484612e8c565b601980546111bf90613cbc565b6000818152600360205260409020546060906001600160a01b0316611f735760405162461bcd60e51b815260206004820152602f60248201527f4552433732314d657461646174613a2055524920717565727920666f72206e6f60448201527f6e6578697374656e7420746f6b656e00000000000000000000000000000000006064820152608401610c5c565b60175462010000900460ff1661201557601a8054611f9090613cbc565b80601f0160208091040260200160405190810160405280929190818152602001828054611fbc90613cbc565b80156120095780601f10611fde57610100808354040283529160200191612009565b820191906000526020600020905b815481529060010190602001808311611fec57829003601f168201915b50505050509050919050565b600061201f612f15565b9050600081511161203f576040518060200160405280600081525061206d565b8061204984612f24565b601960405160200161205d93929190613da5565b6040516020818303038152906040525b9392505050565b6000546001600160a01b031633146120ce5760405162461bcd60e51b815260206004820181905260248201527f4f776e61626c653a2063616c6c6572206973206e6f7420746865206f776e65726044820152606401610c5c565b805161192890601990602084019061378c565b6000546001600160a01b0316331461213b5760405162461bcd60e51b815260206004820181905260248201527f4f776e61626c653a2063616c6c6572206973206e6f7420746865206f776e65726044820152606401610c5c565b6017805491151562010000027fffffffffffffffffffffffffffffffffffffffffffffffffffffffffff00ffff909216919091179055565b6000546001600160a01b031633146121cd5760405162461bcd60e51b815260206004820181905260248201527f4f776e61626c653a2063616c6c6572206973206e6f7420746865206f776e65726044820152606401610c5c565b61030981111561221f5760405162461bcd60e51b815260206004820152601a60248201527f46726565206d696e7420616d6f756e7420746f6f206c617267650000000000006044820152606401610c5c565b601555565b6000546001600160a01b0316331461227e5760405162461bcd60e51b815260206004820181905260248201527f4f776e61626c653a2063616c6c6572206973206e6f7420746865206f776e65726044820152606401610c5c565b6017805461ff001981166101009182900460ff1615909102179055565b8181600082336040516020016122c49291909182526001600160a01b0316602082015260400190565b6040516020818303038152906040528051906020012090506122e68183613056565b6123325760405162461bcd60e51b815260206004820152600c60248201527f496e76616c6964205061737300000000000000000000000000000000000000006044820152606401610c5c565b34866014546123419190613d3c565b111561238f5760405162461bcd60e51b815260206004820152601560248201527f4e6f7420656e6f7567682065746865722073656e7400000000000000000000006044820152606401610c5c565b600061239a600f5490565b9050601654876123aa9190613d3c565b60175490975060ff61010090910416151560011461240a5760405162461bcd60e51b815260206004820152601160248201527f436c61696d204d696e7420436c6f7365640000000000000000000000000000006044820152606401610c5c565b610309612418600183613d0d565b6124229089613d24565b11156124705760405162461bcd60e51b815260206004820152601b60248201527f4e6f7420656e6f75676820746f6b656e732072656d61696e696e6700000000006044820152606401610c5c565b858711156124e65760405162461bcd60e51b815260206004820152602d60248201527f4d696e74207175616e746974792063616e27742062652067726561746572207460448201527f68616e20636c61696d61626c65000000000000000000000000000000000000006064820152608401610c5c565b6000871161255c5760405162461bcd60e51b815260206004820152602760248201527f4d696e74207175616e74697479206d757374206265206772656174657220746860448201527f616e207a65726f000000000000000000000000000000000000000000000000006064820152608401610c5c565b6012548711156125ae5760405162461bcd60e51b815260206004820152601760248201527f4d696e74207175616e7469747920746f6f206c617267650000000000000000006044820152606401610c5c565b601554876125bb60105490565b6125c59190613d24565b11156126135760405162461bcd60e51b815260206004820152601f60248201527f4e6f7420656e6f7567682066726565206d696e74732072656d61696e696e67006044820152606401610c5c565b60005b8781101561265a5761262c600f80546001019055565b61263a601080546001019055565b612648336115a38385613d24565b8061265281613d5b565b915050612616565b5050505050505050565b6000546001600160a01b031633146126be5760405162461bcd60e51b815260206004820181905260248201527f4f776e61626c653a2063616c6c6572206973206e6f7420746865206f776e65726044820152606401610c5c565b6001600160a01b03811661273a5760405162461bcd60e51b815260206004820152602660248201527f4f776e61626c653a206e6577206f776e657220697320746865207a65726f206160448201527f64647265737300000000000000000000000000000000000000000000000000006064820152608401610c5c565b61136781612d60565b6000546001600160a01b0316331461279d5760405162461bcd60e51b815260206004820181905260248201527f4f776e61626c653a2063616c6c6572206973206e6f7420746865206f776e65726044820152606401610c5c565b601494909455601394909455601191909155601255601780547fffffffffffffffffffffffffffffffffffffffffffffffffffffffffffff00001692151561ff0019169290921761010091151591909102179055565b80546001019055565b3b151590565b6000818152600560205260409020805473ffffffffffffffffffffffffffffffffffffffff19166001600160a01b038416908117909155819061284482611a7a565b6001600160a01b03167f8c5be1e5ebec7d5bd14f71427d1e84f3dd0314c0f7b2291e5b200ac8c7c3b92560405160405180910390a45050565b6008546001600160a01b0384166000908152600a6020526040812054909183916128a79086613d3c565b6128b19190613e7f565b6128bb9190613d0d565b949350505050565b804710156129135760405162461bcd60e51b815260206004820152601d60248201527f416464726573733a20696e73756666696369656e742062616c616e63650000006044820152606401610c5c565b6000826001600160a01b03168260405160006040518083038185875af1925050503d8060008114612960576040519150601f19603f3d011682016040523d82523d6000602084013e612965565b606091505b5050905080610ef95760405162461bcd60e51b815260206004820152603a60248201527f416464726573733a20756e61626c6520746f2073656e642076616c75652c207260448201527f6563697069656e74206d617920686176652072657665727465640000000000006064820152608401610c5c565b6000818152600360205260408120546001600160a01b0316612a665760405162461bcd60e51b815260206004820152602c60248201527f4552433732313a206f70657261746f7220717565727920666f72206e6f6e657860448201527f697374656e7420746f6b656e00000000000000000000000000000000000000006064820152608401610c5c565b6000612a7183611a7a565b9050806001600160a01b0316846001600160a01b03161480612aac5750836001600160a01b0316612aa184610d26565b6001600160a01b0316145b806128bb57506001600160a01b0380821660009081526006602090815260408083209388168352929052205460ff16949350505050565b826001600160a01b0316612af682611a7a565b6001600160a01b031614612b725760405162461bcd60e51b815260206004820152602960248201527f4552433732313a207472616e73666572206f6620746f6b656e2074686174206960448201527f73206e6f74206f776e00000000000000000000000000000000000000000000006064820152608401610c5c565b6001600160a01b038216612bed5760405162461bcd60e51b8152602060048201526024808201527f4552433732313a207472616e7366657220746f20746865207a65726f2061646460448201527f72657373000000000000000000000000000000000000000000000000000000006064820152608401610c5c565b612bf8600082612802565b6001600160a01b0383166000908152600460205260408120805460019290612c21908490613d0d565b90915550506001600160a01b0382166000908152600460205260408120805460019290612c4f908490613d24565b9091555050600081815260036020526040808220805473ffffffffffffffffffffffffffffffffffffffff19166001600160a01b0386811691821790925591518493918716917fddf252ad1be2c89b69c2b068fc378daa952ba7f163c4a11628f55a4df523b3ef91a4505050565b61192882826040518060200160405280600081525061313e565b611367816131c7565b604080516001600160a01b038416602482015260448082018490528251808303909101815260649091019091526020810180517bffffffffffffffffffffffffffffffffffffffffffffffffffffffff167fa9059cbb00000000000000000000000000000000000000000000000000000000179052610ef9908490613207565b600080546001600160a01b0383811673ffffffffffffffffffffffffffffffffffffffff19831681178455604051919092169283917f8be0079c531659141344cd1fd0a4f28419497f9722a3daafe3b4186f6b6457e09190a35050565b816001600160a01b0316836001600160a01b03161415612e1f5760405162461bcd60e51b815260206004820152601960248201527f4552433732313a20617070726f766520746f2063616c6c6572000000000000006044820152606401610c5c565b6001600160a01b03838116600081815260066020908152604080832094871680845294825291829020805460ff191686151590811790915591519182527f17307eab39ab6107e8899845ad3d59bd9653f200f220920489ca2b5937696c31910160405180910390a3505050565b612e97848484612ae3565b612ea3848484846132ec565b611e4b5760405162461bcd60e51b815260206004820152603260248201527f4552433732313a207472616e7366657220746f206e6f6e20455243373231526560448201527f63656976657220696d706c656d656e74657200000000000000000000000000006064820152608401610c5c565b606060188054610ca390613cbc565b606081612f6457505060408051808201909152600181527f3000000000000000000000000000000000000000000000000000000000000000602082015290565b8160005b8115612f8e5780612f7881613d5b565b9150612f879050600a83613e7f565b9150612f68565b60008167ffffffffffffffff811115612fa957612fa9613a02565b6040519080825280601f01601f191660200182016040528015612fd3576020820181803683370190505b5090505b84156128bb57612fe8600183613d0d565b9150612ff5600a86613e93565b613000906030613d24565b60f81b81838151811061301557613015613d8f565b60200101907effffffffffffffffffffffffffffffffffffffffffffffffffffffffffffff1916908160001a90535061304f600a86613e7f565b9450612fd7565b600080600184846040015185600001518660200151604051600081526020016040526040516130a1949392919093845260ff9290921660208401526040830152606082015260800190565b6020604051602081039080840390855afa1580156130c3573d6000803e3d6000fd5b5050604051601f1901519150506001600160a01b0381166131265760405162461bcd60e51b815260206004820152601860248201527f45434453413a20696e76616c6964207369676e617475726500000000000000006044820152606401610c5c565b601c546001600160a01b039081169116149392505050565b613148838361348a565b61315560008484846132ec565b610ef95760405162461bcd60e51b815260206004820152603260248201527f4552433732313a207472616e7366657220746f206e6f6e20455243373231526560448201527f63656976657220696d706c656d656e74657200000000000000000000000000006064820152608401610c5c565b6131d0816135d9565b600081815260076020526040902080546131e990613cbc565b15905061136757600081815260076020526040812061136791613810565b600061325c826040518060400160405280602081526020017f5361666545524332303a206c6f772d6c6576656c2063616c6c206661696c6564815250856001600160a01b03166136819092919063ffffffff16565b805190915015610ef9578080602001905181019061327a9190613ea7565b610ef95760405162461bcd60e51b815260206004820152602a60248201527f5361666545524332303a204552433230206f7065726174696f6e20646964206e60448201527f6f742073756363656564000000000000000000000000000000000000000000006064820152608401610c5c565b60006001600160a01b0384163b1561347f576040517f150b7a020000000000000000000000000000000000000000000000000000000081526001600160a01b0385169063150b7a0290613349903390899088908890600401613ec4565b6020604051808303816000875af1925050508015613384575060408051601f3d908101601f1916820190925261338191810190613f00565b60015b613434573d8080156133b2576040519150601f19603f3d011682016040523d82523d6000602084013e6133b7565b606091505b50805161342c5760405162461bcd60e51b815260206004820152603260248201527f4552433732313a207472616e7366657220746f206e6f6e20455243373231526560448201527f63656976657220696d706c656d656e74657200000000000000000000000000006064820152608401610c5c565b805181602001fd5b7fffffffff00000000000000000000000000000000000000000000000000000000167f150b7a02000000000000000000000000000000000000000000000000000000001490506128bb565b506001949350505050565b6001600160a01b0382166134e05760405162461bcd60e51b815260206004820181905260248201527f4552433732313a206d696e7420746f20746865207a65726f20616464726573736044820152606401610c5c565b6000818152600360205260409020546001600160a01b0316156135455760405162461bcd60e51b815260206004820152601c60248201527f4552433732313a20746f6b656e20616c7265616479206d696e746564000000006044820152606401610c5c565b6001600160a01b038216600090815260046020526040812080546001929061356e908490613d24565b9091555050600081815260036020526040808220805473ffffffffffffffffffffffffffffffffffffffff19166001600160a01b03861690811790915590518392907fddf252ad1be2c89b69c2b068fc378daa952ba7f163c4a11628f55a4df523b3ef908290a45050565b60006135e482611a7a565b90506135f1600083612802565b6001600160a01b038116600090815260046020526040812080546001929061361a908490613d0d565b9091555050600082815260036020526040808220805473ffffffffffffffffffffffffffffffffffffffff19169055518391906001600160a01b038416907fddf252ad1be2c89b69c2b068fc378daa952ba7f163c4a11628f55a4df523b3ef908390a45050565b60606128bb848460008585843b6136da5760405162461bcd60e51b815260206004820152601d60248201527f416464726573733a2063616c6c20746f206e6f6e2d636f6e74726163740000006044820152606401610c5c565b600080866001600160a01b031685876040516136f69190613f1d565b60006040518083038185875af1925050503d8060008114613733576040519150601f19603f3d011682016040523d82523d6000602084013e613738565b606091505b5091509150613748828286613753565b979650505050505050565b6060831561376257508161206d565b8251156137725782518084602001fd5b8160405162461bcd60e51b8152600401610c5c9190613930565b82805461379890613cbc565b90600052602060002090601f0160209004810192826137ba5760008555613800565b82601f106137d357805160ff1916838001178555613800565b82800160010185558215613800579182015b828111156138005782518255916020019190600101906137e5565b5061380c929150613846565b5090565b50805461381c90613cbc565b6000825580601f1061382c575050565b601f01602090049060005260206000209081019061136791905b5b8082111561380c5760008155600101613847565b7fffffffff000000000000000000000000000000000000000000000000000000008116811461136757600080fd5b60006020828403121561389b57600080fd5b813561206d8161385b565b6001600160a01b038116811461136757600080fd5b6000602082840312156138cd57600080fd5b813561206d816138a6565b60005b838110156138f35781810151838201526020016138db565b83811115611e4b5750506000910152565b6000815180845261391c8160208601602086016138d8565b601f01601f19169290920160200192915050565b60208152600061206d6020830184613904565b60006020828403121561395557600080fd5b5035919050565b6000806040838503121561396f57600080fd5b823561397a816138a6565b946020939093013593505050565b60008060006060848603121561399d57600080fd5b83356139a8816138a6565b925060208401356139b8816138a6565b929592945050506040919091013590565b600080604083850312156139dc57600080fd5b82356139e7816138a6565b915060208301356139f7816138a6565b809150509250929050565b634e487b7160e01b600052604160045260246000fd5b600067ffffffffffffffff80841115613a3357613a33613a02565b604051601f8501601f19908116603f01168101908282118183101715613a5b57613a5b613a02565b81604052809350858152868686011115613a7457600080fd5b858560208301376000602087830101525050509392505050565b600060208284031215613aa057600080fd5b813567ffffffffffffffff811115613ab757600080fd5b8201601f81018413613ac857600080fd5b6128bb84823560208401613a18565b801515811461136757600080fd5b60008060408385031215613af857600080fd5b8235613b03816138a6565b915060208301356139f781613ad7565b60008060008060808587031215613b2957600080fd5b8435613b34816138a6565b93506020850135613b44816138a6565b925060408501359150606085013567ffffffffffffffff811115613b6757600080fd5b8501601f81018713613b7857600080fd5b613b8787823560208401613a18565b91505092959194509250565b600060208284031215613ba557600080fd5b813561206d81613ad7565b600080600083850360a0811215613bc657600080fd5b843593506020850135925060607fffffffffffffffffffffffffffffffffffffffffffffffffffffffffffffffc082011215613c0157600080fd5b506040516060810181811067ffffffffffffffff82111715613c2557613c25613a02565b6040908152850135815260608501356020820152608085013560ff81168114613c4d57600080fd5b604082015292959194509192509050565b60008060008060008060c08789031215613c7757600080fd5b863595506020870135945060408701359350606087013592506080870135613c9e81613ad7565b915060a0870135613cae81613ad7565b809150509295509295509295565b600181811c90821680613cd057607f821691505b60208210811415613cf157634e487b7160e01b600052602260045260246000fd5b50919050565b634e487b7160e01b600052601160045260246000fd5b600082821015613d1f57613d1f613cf7565b500390565b60008219821115613d3757613d37613cf7565b500190565b6000816000190483118215151615613d5657613d56613cf7565b500290565b6000600019821415613d6f57613d6f613cf7565b5060010190565b600060208284031215613d8857600080fd5b5051919050565b634e487b7160e01b600052603260045260246000fd5b600084516020613db88285838a016138d8565b855191840191613dcb8184848a016138d8565b8554920191600090600181811c9080831680613de857607f831692505b858310811415613e0657634e487b7160e01b85526022600452602485fd5b808015613e1a5760018114613e2b57613e58565b60ff19851688528388019550613e58565b60008b81526020902060005b85811015613e505781548a820152908401908801613e37565b505083880195505b50939b9a5050505050505050505050565b634e487b7160e01b600052601260045260246000fd5b600082613e8e57613e8e613e69565b500490565b600082613ea257613ea2613e69565b500690565b600060208284031215613eb957600080fd5b815161206d81613ad7565b60006001600160a01b03808716835280861660208401525083604083015260806060830152613ef66080830184613904565b9695505050505050565b600060208284031215613f1257600080fd5b815161206d8161385b565b60008251613f2f8184602087016138d8565b919091019291505056fea264697066735822122054a197f0db2dc058f656d8dd90242276a8832340c784e5d70758830e807885bc64736f6c634300080b00334552433732313a207472616e7366657220746f206e6f6e204552433732315265",
  "linkReferences": {},
  "deployedLinkReferences": {}
}